:020000040800F2
:1000000000200020C52E0008152E00081F2E000815
:1000100000000000000000000000000000000000E0
:10002000000000000000000000000000311C00087B
:100030000000000000000000511D0008991D00088C
:10004000152F0008152F0008152F0008152F000880
:10005000152F0008152F0008152F0008152F000870
:10006000152F0008152F0008152F0008152F000860
:10007000152F0008252E0008152F0008152F000841
:10008000152F0008152F000800000000152F00088C
:10009000152F0008152F0008152F0008152F000830
:1000A000152F0008152F0008152F0008152F000820
:1000B000152F000800000000152F000800000000A8
:1000C0000448054B10B5834203D0044B002B00D0ED
:1000D000984710BD08000020080000200000000024
:1000E00006480749091A8910CB0F591810B549104D
:1000F00003D0044B002B00D0984710BD080000200F
:10010000080000200000000010B5074C2378002BE9
:1001100009D1FFF7D5FF054B002B02D0044800E0C2
:1001200000BF0123237010BD080000200000000064
:10013000182F0008054B10B5002B03D004490548C3
:1001400000E000BFFFF7CCFF10BDC046000000007C
:100150000C000020182F0008002243088B4274D3A3
:1001600003098B425FD3030A8B4244D3030B8B42B8
:1001700028D3030C8B420DD3FF22090212BA030CC1
:100180008B4202D31212090265D0030B8B4219D3A2
:1001900000E0090AC30B8B4201D3CB03C01A5241C2
:1001A000830B8B4201D38B03C01A5241430B8B420A
:1001B00001D34B03C01A5241030B8B4201D30B03F3
:1001C000C01A5241C30A8B4201D3CB02C01A52411A
:1001D000830A8B4201D38B02C01A5241430A8B42DD
:1001E00001D34B02C01A5241030A8B4201D30B02C6
:1001F000C01A5241CDD2C3098B4201D3CB01C01AE0
:10020000524183098B4201D38B01C01A52414309E9
:100210008B4201D34B01C01A524103098B4201D3D7
:100220000B01C01A5241C3088B4201D3CB00C01A44
:10023000524183088B4201D38B00C01A52414308BC
:100240008B4201D34B00C01A5241411A00D20146E1
:10025000524110467047FFE701B5002000F006F854
:1002600002BDC0460029F7D076E770477047C04608
:1002700070B50D4E0D4DAD1BAD1006D00024A30082
:10028000F35801349847A542F9D102F045FE084ED3
:10029000084DAD1BAD1006D00024A300F358013467
:1002A0009847A542F9D170BD902F0008902F000803
:1002B000902F0008942F0008F0B5830746D0541EF5
:1002C000002A42D0CEB20200032502E01A00013C0F
:1002D0003BD3531C16702B42F8D1032C2DD9FF228F
:1002E0000A40150215432A0415430F2C16D927007E
:1002F000103F3F093E01B4461E001A001036664406
:10030000156055609560D5601032B242F8D10F2269
:1003100001373F01DB191440032C0ED9261FB60804
:10032000B700BC461A001F1D674420C2BA42FCD168
:1003300003220136B6009B191440002C05D0C9B227
:100340001C19197001339C42FBD1F0BD140003004D
:10035000C3E7C04680B500AF074B1A68064B1021B3
:100360000A431A60002002F0F7FC02F07DFC002333
:100370001800BD4680BDC0460020024080B500AFD9
:10038000034B1B685A1C024B1A60C046BD4680BD19
:100390002400002080B500AF024B1B681800BD464A
:1003A00080BDC0462400002080B582B000AF0200AE
:1003B000FB1D1A70FB1D1B781A001F231A40044BEB
:1003C000012191400A001A60C046BD4602B080BDBE
:1003D00000E100E090B583B000AF02003960FB1D82
:1003E0001A70FB1D1B787F2B32D92F4AFB1D1B78FF
:1003F00019000F230B40083B9B0806339B00D318C2
:1004000004331B68FA1D1278110003220A40D2003F
:10041000FF2191400A00D2431A4011003B689B0122
:10042000FF221A40FB1D1B78180003230340DB004A
:100430009A401D48FB1D1B781C000F232340083BDE
:100440009B080A4306339B00C31804331A6027E055
:10045000164AFB1D1B785BB29B08C0339B009B5860
:10046000FA1D1278110003220A40D200FF219140A8
:100470000A00D2431A4011003B689B01FF221A4038
:10048000FB1D1B78180003230340DB009A4007483C
:10049000FB1D1B785BB29B080A43C0339B001A50BC
:1004A000C046BD4603B090BD00ED00E000E100E0B5
:1004B00080B584B000AFB9607A600F217B18021C50
:1004C0001A70BA687B181B785BB211001800FFF72E
:1004D00081FFC046BD4604B080BD80B582B000AF8C
:1004E0000200FB1D1A70FB1D1B785BB21800FFF7A2
:1004F0005BFFC046BD4602B080BD000080B586B03F
:1005000000AF7860396000237B610023FB6000232B
:100510003B614FE13B681B6801217A6991400A0009
:100520001340FB60FB68002B00D140E13B685B6837
:10053000022B03D03B685B68122B23D17B69DA085E
:100540007B6808329200D3583B617B6907221340D5
:100550009B000F229A401300DA433B6913403B6132
:100560003B681A697B6907210B409B009A40130086
:100570003A6913433B617B69DA087B680832920071
:100580003969D1507B681B683B617B695B00032242
:100590009A401300DA433B6913403B613B685B6858
:1005A00003221A407B695B009A4013003A691343A7
:1005B0003B617B683A691A603B685B68012B0BD032
:1005C0003B685B68022B07D03B685B68112B03D04C
:1005D0003B685B68122B30D17B689B683B617B6911
:1005E0005B0003229A401300DA433B6913403B61EE
:1005F0003B68DA687B695B009A4013003A691343F1
:100600003B617B683A699A607B685B683B61012269
:100610007B699A401300DA433B6913403B613B68B6
:100620005B681B0901221A407B699A4013003A69F2
:1006300013433B617B683A695A607B68DB683B61C6
:100640007B695B0003229A401300DA433B69134045
:100650003B613B689A687B695B009A4013003A698A
:1006600013433B617B683A69DA603B685A688023D0
:100670005B05134000D19AE0544B9A69534B01211A
:100680000A439A61514B9B6901221340BB60BB68CE
:100690004F4A7B699B0802339B009B583B617B69F7
:1006A000032213409B000F229A401300DA433B6958
:1006B00013403B617A689023DB059A4213D07B6834
:1006C000444A93420DD07B68434A934207D07B68EB
:1006D000424A934201D1032306E0052304E00223AA
:1006E00002E0012300E000237A6903210A4092001E
:1006F00093403A6913433B6135497B699B08023358
:100700009B003A695A50364B1B683B61FB68DA43E1
:100710003B6913403B613B685A6880235B0213408E
:1007200003D03A69FB6813433B612D4B3A691A6069
:100730002B4B5B683B61FB68DA433B6913403B61D1
:100740003B685A6880239B02134003D03A69FB68D8
:1007500013433B61224B3A695A60214B9B683B61D2
:10076000FB68DA433B6913403B613B685A6880236E
:100770005B03134003D03A69FB6813433B61184B9A
:100780003A699A60164BDB683B61FB68DA433B6968
:1007900013403B613B685A6880239B03134003D09E
:1007A0003A69FB6813433B610D4B3A69DA607B6938
:1007B00001337B613B681A687B69DA40131E00D005
:1007C000A8E6C046BD4606B080BDC0460010024047
:1007D000000001400004004800080048000C0048E8
:1007E0000004014080B582B000AF786008001100BD
:1007F000BB1C021C1A807B1C0A1C1A707B1C1B78F9
:10080000002B04D0BB1C1A887B689A6103E0BB1CD8
:100810001A887B689A62C046BD4602B080BD80B52A
:1008200082B000AF78600A00BB1C1A807B685A69EE
:10083000BB1C1B885A407B685A61C046BD4602B04B
:1008400080BD000080B582B000AF78607B68002B6F
:1008500001D1012382E07B6841229B5CDBB2002B4B
:1008600007D17B684022002199547B68180002F070
:1008700025FA7B684122242199547B681B681A68F9
:100880007B681B6801218A431A607B685A687B6811
:100890001B6834490A401A617B681B689A687B6848
:1008A0001B6831490A409A607B68DB68012B08D1DC
:1008B0007B689A687B681B68802109020A439A60FA
:1008C00007E07B689A687B681B68842109020A43F9
:1008D0009A607B68DB68022B04D17B681B688022EE
:1008E00012015A607B681B685A687B681B681F4945
:1008F0000A435A607B681B68DA687B681B681A4980
:100900000A40DA607B681A697B685B691A431100E8
:100910007B689B691A027B681B680A43DA607B6804
:10092000D9697B681A6A7B681B680A431A607B680E
:100930001B681A687B681B6801210A431A607B6880
:1009400000225A647B684122202199547B6800224E
:100950001A637B6842220021995400231800BD4687
:1009600002B080BDFFFFFFF0FF7FFFFF00800002AD
:1009700080B582B000AF78607B6841229B5CDBB2BF
:100980001800BD4602B080BD80B582B000AF78606F
:1009900039607B6841229B5CDBB2202B38D17B68BD
:1009A00040229B5C012B01D1022332E07B68402274
:1009B000012199547B684122242199547B681B684A
:1009C0001A687B681B6801218A431A607B681B6870
:1009D0001A687B681B6811490A401A607B681B68AB
:1009E00019687B681B683A680A431A607B681B6851
:1009F0001A687B681B6801210A431A607B684122E0
:100A0000202199547B68402200219954002300E062
:100A100002231800BD4602B080BDC046FFEFFFFFB5
:100A200080B584B000AF786039600023FB607B68DC
:100A300041229B5CDBB2202B39D17B6840229B5C3E
:100A4000012B01D1022333E07B684022012199541C
:100A50007B684122242199547B681B681A687B6853
:100A60001B6801218A431A607B681B681B68FB6056
:100A7000FB68114A1340FB603B681B02FA68134392
:100A8000FB607B681B68FA681A607B681B681A68E1
:100A90007B681B6801210A431A607B684122202180
:100AA00099547B68402200219954002300E00223DE
:100AB0001800BD4604B080BDFFF0FFFF80B586B0D2
:100AC00000AF786000233B617B681B680122134004
:100AD00000D18DE0C34B5B680C221340042B0ED079
:100AE000C04B5B680C221340082B16D1BD4B5A68D3
:100AF00080235B021A4080235B029A420DD1B94BDE
:100B00001A6880239B02134000D170E07B685B6809
:100B1000002B00D06BE00123B6E27B685B68012B01
:100B200007D1B04B1A68AF4B802149020A431A60C3
:100B30002FE07B685B68002B0CD1AA4B1A68A94B8D
:100B4000A9490A401A60A74B1A68A64BA7490A4050
:100B50001A601EE07B685B68052B0ED1A14B1A68FA
:100B6000A04B8021C9020A431A609E4B1A689D4B14
:100B7000802149020A431A600BE09A4B1A68994B8C
:100B800099490A401A60974B1A68964B97490A4050
:100B90001A607B685B68002B14D0FFF7FBFB030037
:100BA0003B6108E0FFF7F6FB02003B69D31A642BB8
:100BB00001D9032368E28B4B1A6880239B02134000
:100BC000F0D015E0FFF7E6FB03003B6108E0FFF71C
:100BD000E1FB02003B69D31A642B01D9032353E2E2
:100BE000804B1A6880239B021340F0D100E0C0467E
:100BF0007B681B680222134000D169E0794B5B6877
:100C00000C2213400BD0774B5B680C221340082B4F
:100C10001CD1744B5A6880235B02134016D1714B70
:100C20001B680222134005D07B68DB68012B01D0D2
:100C3000012329E26B4B1B68F822934319007B6860
:100C40001B69DA00674B0A431A6041E07B68DB6886
:100C5000002B24D0634B1A68624B01210A431A60AF
:100C6000FFF798FB03003B6108E0FFF793FB0200EE
:100C70003B69D31A022B01D9032305E2594B1B68A8
:100C800002221340F1D0574B1B68F82293431900FE
:100C90007B681B69DA00534B0A431A6018E0514B1A
:100CA0001A68504B01218A431A60FFF773FB030057
:100CB0003B6108E0FFF76EFB02003B69D31A022B91
:100CC00001D90323E0E1474B1B6802221340F1D115
:100CD0007B681B680822134036D07B68DB69002BD9
:100CE00019D0404B5A6A3F4B01210A435A62FFF721
:100CF00051FB03003B6108E0FFF74CFB02003B693E
:100D0000D31A022B01D90323BEE1364B5B6A0222C0
:100D10001340F1D018E0334B5A6A324B01218A4319
:100D20005A62FFF737FB03003B6108E0FFF732FB35
:100D300002003B69D31A022B01D90323A4E1294BFA
:100D40005B6A02221340F1D17B681B6804221340C6
:100D500000D1B5E01723FB1800221A70214BDA6985
:100D600080235B05134011D11E4BDA691D4B802196
:100D700049050A43DA611B4BDA6980235B0513409E
:100D8000FB60FB681723FB1801221A70184B1A68C6
:100D900080235B0013401AD1154B1A68144B802135
:100DA00049000A431A60FFF7F5FA03003B6108E0C7
:100DB000FFF7F0FA02003B69D31A642B01D9032331
:100DC00062E10B4B1A6880235B001340F0D07B6814
:100DD0009B68012B0ED1034B1A6A024B01210A4377
:100DE0001A6235E000100240FFFFFEFFFFFFFBFF2D
:100DF000007000407B689B68002B0CD1A44B1A6AE2
:100E0000A34B01218A431A62A14B1A6AA04B042109
:100E10008A431A621CE07B689B68052B0CD19C4BB3
:100E20001A6A9B4B04210A431A62994B1A6A984B1F
:100E300001210A431A620BE0954B1A6A944B012177
:100E40008A431A62924B1A6A914B04218A431A62AE
:100E50007B689B68002B14D0FFF79CFA03003B6172
:100E600009E0FFF797FA02003B69D31A894A9342D7
:100E700001D9032308E1864B1B6A02221340F0D0FC
:100E800013E0FFF787FA03003B6109E0FFF782FAFE
:100E900002003B69D31A7F4A934201D90323F3E04E
:100EA0007B4B1B6A02221340F0D11723FB181B78DF
:100EB000012B05D1764BDA69754B77490A40DA6127
:100EC0007B681B681022134063D07B685B69012B31
:100ED0002AD16F4B5A6B6E4B04210A435A636C4BF9
:100EE0005A6B6B4B01210A435A63FFF753FA030015
:100EF0003B6108E0FFF74EFA02003B69D31A022B70
:100F000001D90323C0E0624B5B6B02221340F1D096
:100F10005F4B5B6BF822934319007B689B69DA0097
:100F20005B4B0A435A6334E07B685B69053311D13C
:100F3000574B5A6B564B04218A435A63544B5B6B95
:100F4000F822934319007B689B69DA00504B0A43EF
:100F50005A631EE04E4B5A6B4D4B04210A435A63B1
:100F60004B4B5A6B4A4B01218A435A63FFF712FAE3
:100F700003003B6108E0FFF70DFA02003B69D31A5A
:100F8000022B01D903237FE0414B5B6B022213400C
:100F9000F1D17B681B6A002B00D174E03C4B5B688D
:100FA0000C221340082B00D16BE07B681B6A022BDC
:100FB0004CD1374B1A68364B38490A401A60FFF754
:100FC000E9F903003B6108E0FFF7E4F902003B693F
:100FD000D31A022B01D9032356E02D4B1A68802324
:100FE0009B041340F0D12A4BDB6A0F229343190074
:100FF0007B68DA6A264B0A43DA62254B5B68284A2B
:10100000134019007B689A6A7B685B6A1A43204B1D
:101010000A435A601E4B1A681D4B802149040A433B
:101020001A60FFF7B7F903003B6108E0FFF7B2F978
:1010300002003B69D31A022B01D9032324E0144B8D
:101040001A6880239B041340F0D01CE0104B1A68F0
:101050000F4B12490A401A60FFF79CF903003B61ED
:1010600008E0FFF797F902003B69D31A022B01D978
:10107000032309E0064B1A6880239B041340F0D138
:1010800001E0012300E000231800BD4606B080BD4A
:101090000010024088130000FFFFFFEFFFFFFFFE7C
:1010A000FFFFC2FF80B584B000AF786039600023D5
:1010B000FB606A4B1B68012213403A689A4211D9BF
:1010C000664B1B68012293431900644B3A680A433C
:1010D0001A60624B1B68012213403A689A4201D0A1
:1010E0000123B6E07B681B680222134009D05C4BE9
:1010F0005B68F022934319007B689A68584B0A4357
:101100005A607B681B680122134000D167E07B684E
:101110005B68012B07D1524B1A6880239B02134056
:1011200014D1012395E07B685B68022B07D14C4BFF
:101130001A6880239B04134008D1012389E0484B9F
:101140001B680222134001D1012382E0444B5B68FB
:101150000322934319007B685A68414B0A435A6043
:10116000FFF718F90300FB607B685B68012B11D166
:1011700009E0FFF70FF90200FB68D31A394A9342DE
:1011800001D9032365E0364B5B680C221340042B26
:10119000EFD124E07B685B68022B1BD109E0FFF7ED
:1011A000F9F80200FB68D31A2E4A934201D90323AF
:1011B0004FE02B4B5B680C221340082BEFD10EE065
:1011C000FFF7E8F80200FB68D31A264A934201D9D8
:1011D00003233EE0224B5B680C221340F0D11F4BEF
:1011E0001B68012213403A689A4211D21B4B1B68BC
:1011F000012293431900194B3A680A431A60174BAE
:101200001B68012213403A689A4201D0012320E072
:101210007B681B680422134009D0114B5B68124A9B
:10122000134019007B68DA680D4B0A435A6000F0DE
:1012300021F801000A4B5B681B090F2213400B4A7F
:10124000D35C0A00DA400A4B1A60002001F084FDEA
:1012500000231800BD4604B080BDC04600200240F7
:101260000010024088130000FFF8FFFF782F0008ED
:101270000400002090B58FB000AF1423FB182B4A58
:1012800013CA13C312681A603B1D294A13CA13C339
:1012900012681A600023FB620023BB6200237B6399
:1012A00000237B6200233B63224B5B68FB62FB6A8B
:1012B0000C221340042B02D0082B03D02DE01E4B30
:1012C0003B632DE0FB6A9B0C0F2213401422BA18DB
:1012D000D35C7B62174BDB6A0F2213403A1DD35C51
:1012E000BB62FA6A80235B02134009D0B96A1248D4
:1012F000FEF732FF03001A007B6A53437B6309E069
:10130000796A0A005201521A93019B1ADB005B189A
:101310001B027B637B6B3B6302E0074B3B63C04676
:101320003B6B1800BD460FB090BDC046302F000883
:10133000402F00080010024000127A0080B500AF74
:10134000024B1B681800BD4680BDC046040000204B
:1013500080B500AFFFF7F2FF0100064B5B681B0A88
:1013600007221340044AD35CD9400B001800BD4645
:1013700080BDC04600100240882F000880B582B0B2
:1013800000AF786039607B6807221A600E4B5B689B
:1013900003221A407B685A600B4B5B68F0221A40AC
:1013A0007B689A60084B5A68E023DB001A407B6830
:1013B000DA60064B1B6801221A403B681A60C0467F
:1013C000BD4602B080BDC046001002400020024071
:1013D00080B586B000AF786000233B610023FB60DE
:1013E0007B681A6880235B02134000D18FE01723CB
:1013F000FB1800221A705F4BDA6980235B051340EB
:1014000011D15C4BDA695B4B802149050A43DA61F3
:10141000584BDA6980235B051340BB60BB68172318
:10142000FB1801221A70544B1A6880235B0013408A
:101430001AD1514B1A68504B802149000A431A6057
:10144000FEF7A8FF03003B6108E0FEF7A3FF0200E0
:101450003B69D31A642B01D9032387E0464B1A68F2
:1014600080235B001340F0D0424B1A6AC0239B00DC
:101470001340FB60FB68002B34D07B685A68C023A4
:101480009B001340FA689A422CD03A4B1B6A3B4AA5
:101490001340FB60374B1A6A364B802149020A43DE
:1014A0001A62344B1A6A334B35490A401A62314B7F
:1014B000FA681A62FB680122134013D0FEF76AFF34
:1014C00003003B6109E0FEF765FF02003B69D31AA8
:1014D0002C4A934201D9032348E0264B1B6A02227F
:1014E0001340F0D0234B1B6A244A134019007B6839
:1014F0005A68204B0A431A621723FB181B78012BEA
:1015000005D11C4BDA691B4B1F490A40DA617B6825
:101510001B680122134009D0164B1B6B0322934317
:1015200019007B689A68134B0A431A637B681B682F
:101530002022134009D00F4B1B6B1022934319003C
:101540007B68DA680B4B0A431A637B681A6880234E
:10155000DB00134009D0074B1B6B4022934319005B
:101560007B681A69034B0A431A6300231800BD46BF
:1015700006B080BD0010024000700040FFFCFFFF7D
:10158000FFFFFEFF88130000FFFFFFEF80B582B072
:1015900000AF78607B68002B01D101231EE07B68DF
:1015A0003D229B5CDBB2002B07D17B683C220021F3
:1015B00099547B68180000F015F87B683D220221E1
:1015C00099547B681A687B6804331900100000F096
:1015D00061F97B683D220121995400231800BD4622
:1015E00002B080BD80B582B000AF7860C046BD4615
:1015F00002B080BD80B582B000AF78607B681B68A8
:10160000DA687B681B6801210A43DA607B681B6823
:101610001A687B681B6801210A431A6000231800BE
:10162000BD4602B080BD80B582B000AF78607B68F7
:101630001B681B6902221340022B24D17B681B68A4
:10164000DB6802221340022B1DD17B681B6803223A
:1016500052421A617B6801221A777B681B689B697A
:101660000322134004D07B68180000F0FAF807E06A
:101670007B68180000F0EDF87B68180000F0F9F8BE
:101680007B6800221A777B681B681B690422134061
:10169000042B25D17B681B68DB6804221340042BD4
:1016A0001ED17B681B68052252421A617B680222A8
:1016B0001A777B681B689A69C0239B00134004D08B
:1016C0007B68180000F0CDF807E07B68180000F098
:1016D000C0F87B68180000F0CCF87B6800221A770D
:1016E0007B681B681B6908221340082B24D17B6888
:1016F0001B68DB6808221340082B1DD17B681B6820
:10170000092252421A617B6804221A777B681B689F
:10171000DB690322134004D07B68180000F0A1F8B5
:1017200007E07B68180000F094F87B68180000F070
:10173000A0F87B6800221A777B681B681B6910225F
:101740001340102B25D17B681B68DB6810221340E7
:10175000102B1ED17B681B68112252421A617B68D4
:1017600008221A777B681B68DA69C0239B00134044
:1017700004D07B68180000F074F807E07B6818005C
:1017800000F067F87B68180000F073F87B680022AF
:101790001A777B681B681B6901221340012B0FD14C
:1017A0007B681B68DB6801221340012B08D17B6832
:1017B0001B68022252421A617B68180001F03CFA51
:1017C0007B681B681B6980221340802B0FD17B68CC
:1017D0001B68DB6880221340802B08D17B681B6864
:1017E000812252421A617B68180000F0DDF87B68A4
:1017F0001B681B6940221340402B0FD17B681B687C
:10180000DB6840221340402B08D17B681B684122D3
:1018100052421A617B68180000F033F87B681B683D
:101820001B6920221340202B0FD17B681B68DB68CB
:1018300020221340202B08D17B681B6821225242B2
:101840001A617B68180000F0A7F8C046BD4602B0D8
:1018500080BD80B582B000AF7860C046BD4602B0A2
:1018600080BD80B582B000AF7860C046BD4602B092
:1018700080BD80B582B000AF7860C046BD4602B082
:1018800080BD80B582B000AF7860C046BD4602B072
:1018900080BD000080B584B000AF7860396000235F
:1018A000FB607B681B68FB607B68344A934208D00E
:1018B0007A688023DB059A4203D07B68304A9342E2
:1018C00008D1FB6870229343FB603B685B68FA6851
:1018D0001343FB607B68294A934218D07A688023BF
:1018E000DB059A4213D07B68254A93420FD07B6870
:1018F000244A93420BD07B68234A934207D07B68EB
:10190000224A934203D07B68214A934208D1FB6864
:10191000204A1340FB603B68DB68FA681343FB60B6
:10192000FB68802293431A003B685B691343FB60AA
:101930007B68FA681A603B689A687B68DA623B6881
:101940001A687B689A627B680C4A93420BD07B686A
:101950000D4A934207D07B680C4A934203D07B68C0
:101960000B4A934203D13B681A697B681A637B6810
:1019700001225A61C046BD4604B080BD002C014022
:1019800000040040002000400040014000440140AD
:1019900000480140FFFCFFFF80B582B000AF7860D7
:1019A000C046BD4602B080BD80B582B000AF786051
:1019B000C046BD4602B080BD80B584B000AF020015
:1019C000BB1D1A800023FB60BB1D00229B5E842B85
:1019D00006D0BB1D00229A5EFB68D3180333FB6060
:1019E000FB681800BD4604B080BD80B500AF00F0B4
:1019F000F9FC00231800BD4680BDF0B587B002AFEA
:101A0000786039607B685C687B681D687B681B69EF
:101A10009EB27B6808229B5E1800FFF7CDFF010095
:101A20003A680C23FB18019300911300320029003F
:101A3000200000F08BFB0300012B01D0002300E00D
:101A4000FB681800BD4605B0F0BD80B584B000AF9E
:101A500078607B68FB60FB68002B01D0FB6800E0CE
:101A60000123180000F098FC00231800BD4604B0C4
:101A700080BD80B582B000AF78607B6808331A0003
:101A80007B685A607B68012252429A607B68083307
:101A90001A007B68DA607B6808331A007B681A6179
:101AA0007B6800221A60C046BD4602B080BD80B58A
:101AB00082B000AF78607B6800221A61C046BD46E4
:101AC00002B080BD80B584B000AF786039607B68BB
:101AD0005B68FB603B68FA685A60FB689A683B6821
:101AE0009A60FB689B683A685A60FB683A689A603B
:101AF0003B687A681A617B681B685A1C7B681A60AD
:101B0000C046BD4604B080BD80B584B000AF7860EB
:101B100039603B681B68BB60BB68013303D17B68DD
:101B20001B69FB600CE07B680833FB6002E0FB682C
:101B30005B68FB60FB685B681B68BA689A42F6D218
:101B4000FB685A683B685A603B685B683A689A6011
:101B50003B68FA689A60FB683A685A603B687A6842
:101B60001A617B681B685A1C7B681A60C046BD46B8
:101B700004B080BD80B584B000AF78607B681B691D
:101B8000FB607B685B687A6892689A607B689B6898
:101B90007A6852685A60FB685B687A689A4203D137
:101BA0007B689A68FB685A607B6800221A61FB6850
:101BB0001B685A1EFB681A60FB681B681800BD464C
:101BC00004B080BD80B584B000AFF860B9607A60C1
:101BD000FB68043BFB60FB68802252041A60FB68D0
:101BE000043BFB60BA68FB681A60FB68043BFB605F
:101BF000084AFB681A60FB68143BFB607A68FB6864
:101C00001A60FB68203BFB60FB681800BD4604B00F
:101C100080BDC046191C000880B500AF034B1B688F
:101C2000013301D072B6FEE772B6FEE70000002075
:101C300080B500AFC046BD4680BD0000000000007A
:101C40000B4A13681868203080F30988022080F35B
:101C50001488BFF36F8F3FBCAE4608BC04BC62B6AD
:101C60001847C046C046C046C046C046C046C046EB
:101C7000400C0020C046C04680B500AF0D4B1A682E
:101C80000C4BFF2109040A431A600A4B1A68094BDE
:101C9000FF2109060A431A6000F098F8064B00225B
:101CA0001A60FFF7CDFFFFF7B7FF00231800BD460E
:101CB00080BDC04620ED00E00000002080B500AFF0
:101CC000054B802252051A60BFF34F8FBFF36F8F11
:101CD000C046BD4680BDC04604ED00E080B500AF03
:101CE00072B6064B1B685A1C044B1A60BFF34F8F29
:101CF000BFF36F8FC046BD4680BDC04600000020C8
:101D000080B500AF094B1B68002B01D172B6FEE70E
:101D1000064B1B685A1E054B1A60044B1B68002BB0
:101D200000D162B6C046BD4680BDC046000000205E
:101D3000EFF3108072B670470023180080F310880C
:101D40007047C046000000000000000000000000D6
:101D5000EFF309800E4B1A6820381060F0C044463B
:101D60004D4656465F46F0C008B572B600F0BCFC62
:101D700062B60CBC116808681030F0C8A046A946CD
:101D8000B246BB4680F309882038F0C81847C046E1
:101D9000400C0020C046C04680B582B000AFFFF7BF
:101DA000C7FF03007B6000F0EBFB031E03D0064B74
:101DB000802252051A607B681800FFF7BFFFC046FB
:101DC000BD4602B080BDC04604ED00E080B500AF66
:101DD000084B1A68FA2399001000FEF7BDF90300BA
:101DE0001A00054B013A1A60044B07221A60C046DC
:101DF000BD4680BD0400002014E000E010E000E0DB
:101E000080B586B000AF78600023FB6000F020FB57
:101E1000494B1B68002B01D100F0E0F8474B1B68D1
:101E20007A68134000D079E07B68002B12D008223A
:101E30007B689B187B607B68072213400AD07B6815
:101E40000722934308337B607B680722134001D04D
:101E500072B6FEE77B68002B60D0394B1B687A684E
:101E60009A425BD8374B3B61364B1B687B6104E081
:101E70007B693B617B691B687B617B695B687A6816
:101E80009A4203D97B691B68002BF1D12A4B1B684E
:101E90007A699A4242D03B691B6808229B18FB6012
:101EA0007B691A683B691A607B695A687B68D21A39
:101EB00008235B009A4216D97A697B68D318BB6005
:101EC000BB680722134001D072B6FEE77B695A68EF
:101ED0007B68D21ABB685A607B697A685A60BB68B3
:101EE000180000F0DBF8164B1A687B695B68D21AA1
:101EF000134B1A60124B1A68134B1B689A4203D299
:101F00000F4B1A68104B1A607B695A680B4B1B68A1
:101F10001A437B695A607B6900221A6000F0A4FAB8
:101F2000FB680722134001D072B6FEE7FB68180079
:101F3000BD4606B080BDC046300C00203C0C0020E1
:101F4000340C0020280C0020380C002080B584B010
:101F500000AF78607B68FB607B68002B35D008237E
:101F60005B42FA68D318FB60FB68BB60BB685A68C9
:101F7000184B1B68134001D172B6FEE7BB681B68A3
:101F8000002B01D072B6FEE7BB685A68114B1B6884
:101F900013401AD0BB681B68002B16D1BB685A6867
:101FA0000C4B1B68DB431A40BB685A6000F050FAC8
:101FB000BB685A68084B1B68D218074B1A60BB688D
:101FC000180000F06BF800F04FFAC046BD4604B0B0
:101FD00080BDC0463C0C0020340C002080B584B08D
:101FE00000AFC0231B01BB60264BFB60FB680722D0
:101FF00013400CD0FB680733FB60FB680722934358
:10200000FB60BA68FB68D21A1E4BD318BB60FB6832
:102010007B601D4B7A681A601B4B00225A607B68FC
:10202000BA68D318FB600822FB689B1AFB60FB6848
:1020300007229343FB60FA68144B1A60134B1B682A
:1020400000225A60114B1B6800221A607B683B60BB
:102050003B68FA68D21A3B685A600C4B1A683B68B6
:102060001A603B685A680A4B1A603B685A68094B09
:102070001A60094B802212061A60C046BD4604B0A1
:1020800080BDC04628000020280C0020300C002015
:10209000380C0020340C00203C0C002080B584B0AB
:1020A00000AF7860274BFB6002E0FB681B68FB60B9
:1020B000FB681B687A689A42F7D8FB68BB60FB68CC
:1020C0005B68BA68D3187A689A4208D1FB685A6884
:1020D0007B685B68D218FB685A60FB687B607B6832
:1020E000BB607B685B68BA68D218FB681B689A4261
:1020F00018D1FB681A68144B1B689A420DD07B6894
:102100005A68FB681B685B68D2187B685A60FB687A
:102110001B681A687B681A6008E00B4B1A687B68BA
:102120001A6003E0FB681A687B681A60FA687B68CB
:102130009A4202D0FB687A681A60C046BD4604B075
:1021400080BDC046280C0020300C002090B58DB01A
:1021500004AFF860B9603B60BB1D1A80BB1D1B88D3
:102160009B001800FFF74CFE03007B617B69002B8E
:1021700010D05420FFF744FE0300FB61FB69002BE5
:1021800003D0FB697A691A6306E07B691800FFF7E0
:10219000DDFE01E00023FB61FB69002B16D0BB1DB7
:1021A0001A883C68B968F86800230393FB690293B6
:1021B0007B6B01933B6B0093230000F00FF8FB69EE
:1021C000180000F085F80123BB6102E001235B42A7
:1021D000BB61BB691800BD4609B090BD80B586B033
:1021E00000AFF860B9607A603B60BB6A1A6B7B68CD
:1021F00036498C4663449B00D3183B613B690722F8
:1022000093433B613B690722134001D072B6FEE75E
:1022100000237B6113E0BA687B69D3181878BA6A27
:1022200034217B69D3185B18021C1A70BA687B6969
:10223000D3181B78002B06D07B6901337B617B6947
:102240000F2BE8D900E0C046BB6A43220021995415
:102250003B6A062B01D906233B62BB6A3A6ADA6203
:10226000BB6A3A6A5A64BB6A00229A64BB6A043346
:102270001800FFF71CFCBB6A18331800FFF717FCA7
:10228000BB6ABA6A1A613B6A0722D21ABB6A9A61B0
:10229000BB6ABA6A5A62BB6A0022DA64BB6A50221D
:1022A000002199543A68F9683B691800FFF78AFCE5
:1022B0000200BB6A1A607B6A002B02D07B6ABA6A92
:1022C0001A60C046BD4606B080BDC046FFFFFF3F56
:1022D00080B582B000AF7860FFF700FD284B1B6827
:1022E0005A1C274B1A60274B1B68002B09D1254B22
:1022F0007A681A60224B1B68012B10D100F056FA45
:102300000DE0214B1B68002B09D11E4B1B68DA6ABC
:102310007B68DB6A9A4202D81A4B7A681A601B4BB8
:102320001B685A1C194B1A607B68DA6A184B1B68C9
:102330009A4203D97B68DA6A154B1A607B68DA6ABD
:1023400013009B009B189B00124A9A187B68043369
:1023500019001000FFF7B6FBFFF7D2FC0A4B1B6811
:10236000002B08D0074B1B68DA6A7B68DB6A9A424D
:1023700001D2FFF7A3FCC046BD4602B080BDC046F7
:10238000400D0020400C00204C0D00205C0D002072
:10239000480D0020440C002080B584B000AF786068
:1023A0000023FB607B68002B10D00D4B1B68002BBB
:1023B00001D072B6FEE700F04BF87B6800211800F0
:1023C00000F0A8FA00F050F80300FB60FB68002B57
:1023D00001D1FFF773FCC046BD4604B080BDC046C6
:1023E000680D002080B584B002AF13491348144B28
:1023F00001930023009300238022FFF7A7FE030030
:102400007B607B68012B0DD172B60E4B01225242CC
:102410001A600D4B01221A600C4B00221A60FFF764
:102420002BFC04E07B68013301D172B6FEE7C046A5
:10243000BD4602B080BDC046502F00088D27000861
:10244000640D0020600D00204C0D0020440D002084
:1024500080B500AF034B1B685A1C024B1A60C04684
:10246000BD4680BD680D002080B584B000AF00235C
:10247000FB600023BB603A4B1B68002B01D172B696
:10248000FEE7FFF72BFC364B1B685A1E344B1A60D5
:10249000334B1B68002B5BD1324B1B68002B57D092
:1024A0002FE0314BDB68DB68FB60FB6818331800FA
:1024B000FFF760FBFB6804331800FFF75BFBFB686A
:1024C000DA6A2A4B1B689A4203D9FB68DA6A274BFF
:1024D0001A60FB68DA6A13009B009B189B00244A71
:1024E0009A18FB68043319001000FFF7EBFAFB6839
:1024F000DA6A204B1B68DB6A9A4202D31E4B012228
:102500001A60194B1B68002BCBD1FB68002B01D044
:1025100000F0DCF9194B1B687B607B68002B0FD047
:1025200000F02EF8031E02D0134B01221A607B68C4
:10253000013B7B607B68002BF2D1104B00221A60BC
:102540000D4B1B68002B03D00123BB60FFF7B6FBCC
:10255000FFF7D6FBBB681800BD4604B080BDC0467F
:10256000680D0020400D0020000D0020480D0020C7
:10257000440C0020400C0020540D0020500D002081
:1025800080B586B000AF00237B614C4B1B68002BED
:1025900000D083E04A4B1B6801333B61484B3A69EA
:1025A0001A603B69002B17D1464B1B681B68002B38
:1025B00001D072B6FEE7434B1B68FB60424B1A68C2
:1025C000404B1A60404BFA681A60404B1B685A1C1B
:1025D0003E4B1A6000F07AF93D4B1B683A699A420B
:1025E0004ED3384B1B681B68002B01D1012300E040
:1025F0000023002B04D0364B012252421A603FE0E8
:10260000304B1B68DB68DB68BB60BB685B687B606A
:102610003A697B689A4203D22D4B7A681A602FE0A0
:10262000BB6804331800FFF7A5FABB689B6A002B50
:1026300004D0BB6818331800FFF79CFABB68DA6A4D
:10264000244B1B689A4203D9BB68DA6A214B1A6093
:10265000BB68DA6A13009B009B189B001E4A9A18FD
:10266000BB68043319001000FFF72CFABB68DA6A64
:102670001A4B1B68DB6A9A42B3D301237B61B0E734
:10268000164B1B68DA6A144913009B009B189B00C9
:102690005B58012B07D901237B6104E0104B1B68B9
:1026A0005A1C0F4B1A600F4B1B68002B01D00123E3
:1026B0007B617B691800BD4606B080BD680D0020B7
:1026C000440D0020F80C0020FC0C0020580D0020C8
:1026D000600D0020480D0020440C0020400C00201C
:1026E000500D0020540D002080B582B000AF224B69
:1026F0001B68002B03D0214B01221A6037E01F4BCF
:1027000000221A601E4B1B687B6007E07B68002B71
:1027100001D172B6FEE77B68013B7B6019497A689C
:1027200013009B009B189B005B58002BEED07A682F
:1027300013009B009B189B00124A9B183B603B6850
:102740005B685A683B685A603B685A683B68083364
:102750009A4204D13B685B685A683B685A603B68A0
:102760005B68DA68084B1A60054B7A681A60C046E5
:10277000BD4602B080BDC046680D0020540D00204B
:10278000480D0020440C0020400C002080B582B091
:1027900000AF786000F04EF8034B1B68012BF9D9AD
:1027A000FFF78CFAF6E7C046440C002080B582B0F3
:1027B00000AF00237B600CE07A6813009B009B183D
:1027C0009B00144A9B181800FFF753F97B680133EC
:1027D0007B607B68062BEFD90F4B1800FFF749F998
:1027E0000E4B1800FFF745F90D4B1800FFF741F9A4
:1027F0000C4B1800FFF73DF90B4B1800FFF739F9A8
:102800000A4B054A1A600A4B044A1A60C046BD4684
:1028100002B080BD440C0020D00C0020E40C00204D
:10282000000D0020140D00202C0D0020F80C0020BD
:10283000FC0C002080B582B000AF27E0FFF708FE57
:10284000164B1B685A425341DBB27B60FFF70CFE0C
:102850007B68002B1AD1FFF741FA104BDB68DB686D
:102860003B603B6804331800FFF784F90C4B1B688E
:102870005A1E0B4B1A600B4B1B685A1E094B1A60F1
:10288000FFF73EFA3B68180000F00EF8054B1B6896
:10289000002BD3D1C046BD4602B080BD140D002030
:1028A000400D0020280D002080B582B000AF786078
:1028B0007B681B6B1800FFF749FB7B681800FFF76C
:1028C00045FBC046BD4602B080BD000080B582B069
:1028D00000AF0E4B1B681B68002B01D1012300E0E9
:1028E0000023002B04D00A4B012252421A6008E058
:1028F000064B1B68DB68DB687B607B685A68044BAF
:102900001A60C046BD4602B080BDC046F80C00202B
:10291000600D002080B584B000AF78603960214B35
:102920001B68FB60204B1B6804331800FFF722F97B
:102930007B6801330BD13B68002B08D01A4B1B6816
:102940001A1D1A4B11001800FFF7BCF826E0FA68B0
:102950007B68D318BB60144B1B68BA685A60BA68AE
:10296000FB689A4209D2124B1A680F4B1B6804335A
:1029700019001000FFF7C8F810E00E4B1A680A4B58
:102980001B68043319001000FFF7BEF80A4B1B68E0
:10299000BA689A4202D2084BBA681A60C046BD466D
:1029A00004B080BD440D0020400C00202C0D002000
:1029B000FC0C0020F80C0020600D002090B587B0C2
:1029C00000AFFDF7C7FC00F027F800F0BDF800F0FD
:1029D0007BF81723FC180D4B1800FDF7C9FF030007
:1029E00023706420FFF731F83B00094A13CA13C370
:1029F00003CA03C33B0000211800FEF7FEFF0200DC
:102A0000044B1A60FEF7F1FFFEE7C0466C0D002094
:102A1000642F0008B80D002090B597B000AF2824AF
:102A20003B19180030231A000021FDF745FC18233C
:102A3000FB18180010231A000021FDF73DFC3B1D78
:102A4000180014231A000021FDF736FC21007B1822
:102A500002221A607B180122DA607B1810221A61A8
:102A60007B1800221A627B181800FEF727F8031E55
:102A700001D000F0F3F818217B1807221A607B18A8
:102A800000225A607B1800229A607B180022DA60CC
:102A90007B1800211800FEF705FB031E01D000F093
:102AA000DDF83B1D20221A603B1D0022DA603B1D31
:102AB0001800FEF78DFC031E01D000F0CFF8C046D1
:102AC000BD4617B090BD000080B500AF1B4B1C4A3F
:102AD0001A601A4B1B4A5A60184B00229A60174B17
:102AE0000122DA60154B00221A61144B00225A6150
:102AF000124B00229A61114B0022DA610F4B002227
:102B00001A620E4B1800FDF79DFE031E01D000F067
:102B1000A5F80A4B00211800FDF736FF031E01D06F
:102B200000F09CF8054B00211800FDF779FF031E0B
:102B300001D000F093F8C046BD4680BD6C0D00206A
:102B4000005400400E09002090B58BB000AF142453
:102B50003B19180014231A000021FDF7ADFB2B4B85
:102B60005A692A4B802109030A435A61274B5A6943
:102B700080231B0313403B613B69244B5A69234B61
:102B80008021C9030A435A61204B5A698023DB0321
:102B90001340FB60FB681D4B5A691C4B8021890266
:102BA0000A435A61194B5A6980239B021340BB6048
:102BB000BB68164B5A69154B8021C9020A435A61FA
:102BC000124B5A698023DB0213407B607B688023B1
:102BD0009B010F4800221900FDF704FE3B198022DB
:102BE00092011A603B1901225A603B1900229A6037
:102BF0003B190022DA603B19054A19001000FDF765
:102C00007DFCC046BD460BB090BDC04600100240E2
:102C10000008004880B582B000AF78606420FEF7FD
:102C200014FF80239B01034A19001000FDF7F7FDF4
:102C3000F4E7C0460008004880B582B000AF786075
:102C40007B681B68044A934201D1FDF797FBC0469D
:102C5000BD4602B080BDC046002C014080B500AF2B
:102C6000C046BD4680BD000080B582B000AF124BAB
:102C70009A69114B01210A439A610F4B9B6901220A
:102C800013407B607B680C4BDA690B4B8021490554
:102C90000A43DA61084BDA6980235B0513403B6025
:102CA0003B6802235B42002203211800FDF700FC71
:102CB000C046BD4602B080BD0010024080B58AB05B
:102CC00000AF78601423FB18180014231A000021A9
:102CD000FDF7F2FA7B681B681C4A934231D11C4B0A
:102CE0005A691B4B8021C9020A435A61184B5A6921
:102CF0008023DB0213403B613B6914217B18C02217
:102D00001A607B1812225A607B1801229A607B1885
:102D10000322DA607B1801221A617B180D4A190020
:102D20001000FDF7EBFB0A4BDA69094B80218903A0
:102D30000A43DA61064BDA6980239B031340FB6088
:102D4000FB68C046BD460AB080BDC0460054004086
:102D5000001002400004004880B58AB000AF7860DF
:102D600000237B6200233B627B68002219000D2058
:102D7000FDF79EFB0D20FDF7B0FB214B9A69204B20
:102D8000802109010A439A611D4B9A6980231B0126
:102D90001340BB60BB680C23FA181023FB1811000A
:102DA0001800FEF7EBFAFEF7D3FA03007B627B6AAA
:102DB00014491800FDF7D0F90300013B3B62124BA8
:102DC000124A1A60104B124ADA600F4B3A6A5A6084
:102DD0000D4B00221A610C4B00229A600A4B18001E
:102DE000FEF7D4FB031E05D1074B1800FEF702FCCB
:102DF000030000E001231800BD460AB080BDC046B4
:102E00000010024040420F00BC0D0020002C014089
:102E1000E703000080B500AFC046BD4680BD80B569
:102E200000AFFEE780B500AF034B1800FEF7FBFBD9
:102E3000C046BD4680BDC046BC0D002080B500AF79
:102E40001A4B1A68194B01210A431A60174B5A682A
:102E5000164B17490A405A60144B1A68134B154910
:102E60000A401A60114B1A68104B13490A401A6045
:102E70000E4B5A680D4B11490A405A600B4BDA6AE7
:102E80000A4B0F218A43DA62084B1A6B074B0C4935
:102E90000A401A63054B5A6B044B01218A435A635B
:102EA000024B00229A60C046BD4680BD0010024021
:102EB0000CB8FFF8FFFFF6FEFFFFFBFFFFFFC0FFB0
:102EC000ACFEFFFF0D4885460D480E490E4A002313
:102ED00002E0D458C4500433C4188C42F9D30B4ACE
:102EE0000B4C002301E013600432A242FBD3FFF736
:102EF000A5FFFDF7BDF9FFF761FDFEE7002000200B
:102F00000000002008000020982F00080800002082
:102F1000FC0D0020FEE70000F8B5C046F8BC08BC78
:102F20009E467047F8B5C046F8BC08BC9E46704740
:102F300002030405060708090A0B0C0D0E0F1010FA
:102F40000102030405060708090A0B0C0D0E0F10F9
:102F500049444C450000000064656661756C74541A
:102F600061736B00582F0008152C0008000000004A
:102F700000000000800000000000000000000000D1
:102F8000010203040607080900000000010203040F
:042F900035010008FF
:042F94000901000827
:082F9800AAAAAAAA00127A00FD
:0400000508002EC5FC
:00000001FF
