Archive member included to satisfy reference by file (symbol)

/usr/lib/gcc/arm-none-eabi/7.3.1/thumb/v6-m/libgcc.a(_udivsi3.o)
                              CMakeFiles/test3.elf.dir/Drivers/STM32F0xx_HAL_Driver/Src/stm32f0xx_hal.c.obj (__aeabi_uidiv)
/usr/lib/gcc/arm-none-eabi/7.3.1/thumb/v6-m/libgcc.a(_dvmd_tls.o)
                              /usr/lib/gcc/arm-none-eabi/7.3.1/thumb/v6-m/libgcc.a(_udivsi3.o) (__aeabi_idiv0)
/usr/lib/gcc/arm-none-eabi/7.3.1/../../../arm-none-eabi/lib/thumb/v6-m/libg_nano.a(lib_a-atexit.o)
                              /usr/lib/gcc/arm-none-eabi/7.3.1/../../../arm-none-eabi/lib/thumb/v6-m/crt0.o (atexit)
/usr/lib/gcc/arm-none-eabi/7.3.1/../../../arm-none-eabi/lib/thumb/v6-m/libg_nano.a(lib_a-errno.o)
                              CMakeFiles/test3.elf.dir/Src/syscalls.c.obj (__errno)
/usr/lib/gcc/arm-none-eabi/7.3.1/../../../arm-none-eabi/lib/thumb/v6-m/libg_nano.a(lib_a-exit.o)
                              /usr/lib/gcc/arm-none-eabi/7.3.1/../../../arm-none-eabi/lib/thumb/v6-m/crt0.o (exit)
/usr/lib/gcc/arm-none-eabi/7.3.1/../../../arm-none-eabi/lib/thumb/v6-m/libg_nano.a(lib_a-fini.o)
                              /usr/lib/gcc/arm-none-eabi/7.3.1/../../../arm-none-eabi/lib/thumb/v6-m/crt0.o (__libc_fini_array)
/usr/lib/gcc/arm-none-eabi/7.3.1/../../../arm-none-eabi/lib/thumb/v6-m/libg_nano.a(lib_a-impure.o)
                              /usr/lib/gcc/arm-none-eabi/7.3.1/../../../arm-none-eabi/lib/thumb/v6-m/libg_nano.a(lib_a-exit.o) (_global_impure_ptr)
/usr/lib/gcc/arm-none-eabi/7.3.1/../../../arm-none-eabi/lib/thumb/v6-m/libg_nano.a(lib_a-init.o)
                              /usr/lib/gcc/arm-none-eabi/7.3.1/../../../arm-none-eabi/lib/thumb/v6-m/crt0.o (__libc_init_array)
/usr/lib/gcc/arm-none-eabi/7.3.1/../../../arm-none-eabi/lib/thumb/v6-m/libg_nano.a(lib_a-memcpy-stub.o)
                              CMakeFiles/test3.elf.dir/Middlewares/Third_Party/FreeRTOS/Source/queue.c.obj (memcpy)
/usr/lib/gcc/arm-none-eabi/7.3.1/../../../arm-none-eabi/lib/thumb/v6-m/libg_nano.a(lib_a-memset.o)
                              /usr/lib/gcc/arm-none-eabi/7.3.1/../../../arm-none-eabi/lib/thumb/v6-m/crt0.o (memset)
/usr/lib/gcc/arm-none-eabi/7.3.1/../../../arm-none-eabi/lib/thumb/v6-m/libg_nano.a(lib_a-__atexit.o)
                              /usr/lib/gcc/arm-none-eabi/7.3.1/../../../arm-none-eabi/lib/thumb/v6-m/libg_nano.a(lib_a-atexit.o) (__register_exitproc)
/usr/lib/gcc/arm-none-eabi/7.3.1/../../../arm-none-eabi/lib/thumb/v6-m/libg_nano.a(lib_a-__call_atexit.o)
                              /usr/lib/gcc/arm-none-eabi/7.3.1/../../../arm-none-eabi/lib/thumb/v6-m/libg_nano.a(lib_a-__atexit.o) (__call_exitprocs)

Discarded input sections

 .text          0x0000000000000000        0x0 /usr/lib/gcc/arm-none-eabi/7.3.1/thumb/v6-m/crti.o
 .data          0x0000000000000000        0x0 /usr/lib/gcc/arm-none-eabi/7.3.1/thumb/v6-m/crti.o
 .bss           0x0000000000000000        0x0 /usr/lib/gcc/arm-none-eabi/7.3.1/thumb/v6-m/crti.o
 .data          0x0000000000000000        0x4 /usr/lib/gcc/arm-none-eabi/7.3.1/thumb/v6-m/crtbegin.o
 .text          0x0000000000000000       0x6c /usr/lib/gcc/arm-none-eabi/7.3.1/../../../arm-none-eabi/lib/thumb/v6-m/crt0.o
 .data          0x0000000000000000        0x0 /usr/lib/gcc/arm-none-eabi/7.3.1/../../../arm-none-eabi/lib/thumb/v6-m/crt0.o
 .bss           0x0000000000000000        0x0 /usr/lib/gcc/arm-none-eabi/7.3.1/../../../arm-none-eabi/lib/thumb/v6-m/crt0.o
 .ARM.extab     0x0000000000000000        0x0 /usr/lib/gcc/arm-none-eabi/7.3.1/../../../arm-none-eabi/lib/thumb/v6-m/crt0.o
 .ARM.exidx     0x0000000000000000        0x8 /usr/lib/gcc/arm-none-eabi/7.3.1/../../../arm-none-eabi/lib/thumb/v6-m/crt0.o
 .debug_line    0x0000000000000000       0x86 /usr/lib/gcc/arm-none-eabi/7.3.1/../../../arm-none-eabi/lib/thumb/v6-m/crt0.o
 .debug_info    0x0000000000000000       0x26 /usr/lib/gcc/arm-none-eabi/7.3.1/../../../arm-none-eabi/lib/thumb/v6-m/crt0.o
 .debug_abbrev  0x0000000000000000       0x14 /usr/lib/gcc/arm-none-eabi/7.3.1/../../../arm-none-eabi/lib/thumb/v6-m/crt0.o
 .debug_aranges
                0x0000000000000000       0x20 /usr/lib/gcc/arm-none-eabi/7.3.1/../../../arm-none-eabi/lib/thumb/v6-m/crt0.o
 .debug_str     0x0000000000000000       0x97 /usr/lib/gcc/arm-none-eabi/7.3.1/../../../arm-none-eabi/lib/thumb/v6-m/crt0.o
 .ARM.attributes
                0x0000000000000000       0x1b /usr/lib/gcc/arm-none-eabi/7.3.1/../../../arm-none-eabi/lib/thumb/v6-m/crt0.o
 .text          0x0000000000000000        0x0 CMakeFiles/test3.elf.dir/Drivers/STM32F0xx_HAL_Driver/Src/stm32f0xx_hal.c.obj
Memory Configuration

Name             Origin             Length             Attributes
RAM              0x0000000020000000 0x0000000000002000 xrw
FLASH            0x0000000008000000 0x0000000000010000 xr
*default*        0x0000000000000000 0xffffffffffffffff

Linker script and memory map

LOAD /usr/lib/gcc/arm-none-eabi/7.3.1/thumb/v6-m/crti.o
LOAD /usr/lib/gcc/arm-none-eabi/7.3.1/thumb/v6-m/crtbegin.o
LOAD /usr/lib/gcc/arm-none-eabi/7.3.1/../../../arm-none-eabi/lib/thumb/v6-m/crt0.o
LOAD CMakeFiles/test3.elf.dir/Drivers/STM32F0xx_HAL_Driver/Src/stm32f0xx_hal.c.obj
LOAD CMakeFiles/test3.elf.dir/Drivers/STM32F0xx_HAL_Driver/Src/stm32f0xx_hal_cortex.c.obj
LOAD CMakeFiles/test3.elf.dir/Drivers/STM32F0xx_HAL_Driver/Src/stm32f0xx_hal_dma.c.obj
LOAD CMakeFiles/test3.elf.dir/Drivers/STM32F0xx_HAL_Driver/Src/stm32f0xx_hal_flash.c.obj
LOAD CMakeFiles/test3.elf.dir/Drivers/STM32F0xx_HAL_Driver/Src/stm32f0xx_hal_flash_ex.c.obj
LOAD CMakeFiles/test3.elf.dir/Drivers/STM32F0xx_HAL_Driver/Src/stm32f0xx_hal_gpio.c.obj
LOAD CMakeFiles/test3.elf.dir/Drivers/STM32F0xx_HAL_Driver/Src/stm32f0xx_hal_i2c.c.obj
LOAD CMakeFiles/test3.elf.dir/Drivers/STM32F0xx_HAL_Driver/Src/stm32f0xx_hal_i2c_ex.c.obj
LOAD CMakeFiles/test3.elf.dir/Drivers/STM32F0xx_HAL_Driver/Src/stm32f0xx_hal_pwr.c.obj
LOAD CMakeFiles/test3.elf.dir/Drivers/STM32F0xx_HAL_Driver/Src/stm32f0xx_hal_pwr_ex.c.obj
LOAD CMakeFiles/test3.elf.dir/Drivers/STM32F0xx_HAL_Driver/Src/stm32f0xx_hal_rcc.c.obj
LOAD CMakeFiles/test3.elf.dir/Drivers/STM32F0xx_HAL_Driver/Src/stm32f0xx_hal_rcc_ex.c.obj
LOAD CMakeFiles/test3.elf.dir/Drivers/STM32F0xx_HAL_Driver/Src/stm32f0xx_hal_tim.c.obj
LOAD CMakeFiles/test3.elf.dir/Drivers/STM32F0xx_HAL_Driver/Src/stm32f0xx_hal_tim_ex.c.obj
LOAD CMakeFiles/test3.elf.dir/Middlewares/Third_Party/FreeRTOS/Source/CMSIS_RTOS/cmsis_os.c.obj
LOAD CMakeFiles/test3.elf.dir/Middlewares/Third_Party/FreeRTOS/Source/croutine.c.obj
LOAD CMakeFiles/test3.elf.dir/Middlewares/Third_Party/FreeRTOS/Source/event_groups.c.obj
LOAD CMakeFiles/test3.elf.dir/Middlewares/Third_Party/FreeRTOS/Source/list.c.obj
LOAD CMakeFiles/test3.elf.dir/Middlewares/Third_Party/FreeRTOS/Source/portable/GCC/ARM_CM0/port.c.obj
LOAD CMakeFiles/test3.elf.dir/Middlewares/Third_Party/FreeRTOS/Source/portable/MemMang/heap_4.c.obj
LOAD CMakeFiles/test3.elf.dir/Middlewares/Third_Party/FreeRTOS/Source/queue.c.obj
LOAD CMakeFiles/test3.elf.dir/Middlewares/Third_Party/FreeRTOS/Source/tasks.c.obj
LOAD CMakeFiles/test3.elf.dir/Middlewares/Third_Party/FreeRTOS/Source/timers.c.obj
LOAD CMakeFiles/test3.elf.dir/Src/freertos.c.obj
LOAD CMakeFiles/test3.elf.dir/Src/main.c.obj
LOAD CMakeFiles/test3.elf.dir/Src/stm32f0xx_hal_msp.c.obj
LOAD CMakeFiles/test3.elf.dir/Src/stm32f0xx_hal_timebase_tim.c.obj
LOAD CMakeFiles/test3.elf.dir/Src/stm32f0xx_it.c.obj
LOAD CMakeFiles/test3.elf.dir/Src/syscalls.c.obj
LOAD CMakeFiles/test3.elf.dir/Src/system_stm32f0xx.c.obj
LOAD CMakeFiles/test3.elf.dir/startup/startup_stm32f051x8.s.obj
START GROUP
LOAD /usr/lib/gcc/arm-none-eabi/7.3.1/thumb/v6-m/libgcc.a
LOAD /usr/lib/gcc/arm-none-eabi/7.3.1/../../../arm-none-eabi/lib/thumb/v6-m/libg_nano.a
LOAD /usr/lib/gcc/arm-none-eabi/7.3.1/../../../arm-none-eabi/lib/thumb/v6-m/libc_nano.a
END GROUP
START GROUP
LOAD /usr/lib/gcc/arm-none-eabi/7.3.1/thumb/v6-m/libgcc.a
LOAD /usr/lib/gcc/arm-none-eabi/7.3.1/../../../arm-none-eabi/lib/thumb/v6-m/libc_nano.a
LOAD /usr/lib/gcc/arm-none-eabi/7.3.1/../../../arm-none-eabi/lib/thumb/v6-m/libnosys.a
END GROUP
START GROUP
LOAD /usr/lib/gcc/arm-none-eabi/7.3.1/thumb/v6-m/libgcc.a
LOAD /usr/lib/gcc/arm-none-eabi/7.3.1/../../../arm-none-eabi/lib/thumb/v6-m/libc_nano.a
LOAD /usr/lib/gcc/arm-none-eabi/7.3.1/../../../arm-none-eabi/lib/thumb/v6-m/libnosys.a
END GROUP
LOAD /usr/lib/gcc/arm-none-eabi/7.3.1/thumb/v6-m/crtend.o
LOAD /usr/lib/gcc/arm-none-eabi/7.3.1/thumb/v6-m/crtn.o
                0x0000000020002000                _estack = 0x20002000
                0x0000000000000200                _Min_Heap_Size = 0x200
                0x0000000000000400                _Min_Stack_Size = 0x400

.isr_vector     0x0000000008000000       0xc0
                0x0000000008000000                . = ALIGN (0x4)
 *(.isr_vector)
 .isr_vector    0x0000000008000000       0xc0 CMakeFiles/test3.elf.dir/startup/startup_stm32f051x8.s.obj
                0x0000000008000000                g_pfnVectors
                0x00000000080000c0                . = ALIGN (0x4)

.text           0x00000000080000c0     0x2e70
                0x00000000080000c0                . = ALIGN (0x4)
 *(.text)
 .text          0x00000000080000c0       0x98 /usr/lib/gcc/arm-none-eabi/7.3.1/thumb/v6-m/crtbegin.o
 .text          0x0000000008000158      0x114 /usr/lib/gcc/arm-none-eabi/7.3.1/thumb/v6-m/libgcc.a(_udivsi3.o)
                0x0000000008000158                __udivsi3
                0x0000000008000158                __aeabi_uidiv
                0x0000000008000264                __aeabi_uidivmod
 .text          0x000000000800026c        0x4 /usr/lib/gcc/arm-none-eabi/7.3.1/thumb/v6-m/libgcc.a(_dvmd_tls.o)
                0x000000000800026c                __aeabi_ldiv0
                0x000000000800026c                __aeabi_idiv0
 .text          0x0000000008000270       0x48 /usr/lib/gcc/arm-none-eabi/7.3.1/../../../arm-none-eabi/lib/thumb/v6-m/libg_nano.a(lib_a-init.o)
                0x0000000008000270                __libc_init_array
 .text          0x00000000080002b8       0x9c /usr/lib/gcc/arm-none-eabi/7.3.1/../../../arm-none-eabi/lib/thumb/v6-m/libg_nano.a(lib_a-memset.o)
                0x00000000080002b8                memset
 *(.text*)
 .text.HAL_Init
                0x0000000008000354       0x28 CMakeFiles/test3.elf.dir/Drivers/STM32F0xx_HAL_Driver/Src/stm32f0xx_hal.c.obj
                0x0000000008000354                HAL_Init
 .text.HAL_IncTick
                0x000000000800037c       0x18 CMakeFiles/test3.elf.dir/Drivers/STM32F0xx_HAL_Driver/Src/stm32f0xx_hal.c.obj
                0x000000000800037c                HAL_IncTick
 .text.HAL_GetTick
                0x0000000008000394       0x14 CMakeFiles/test3.elf.dir/Drivers/STM32F0xx_HAL_Driver/Src/stm32f0xx_hal.c.obj
                0x0000000008000394                HAL_GetTick
 .text.NVIC_EnableIRQ
                0x00000000080003a8       0x2c CMakeFiles/test3.elf.dir/Drivers/STM32F0xx_HAL_Driver/Src/stm32f0xx_hal_cortex.c.obj
 .text.NVIC_SetPriority
                0x00000000080003d4       0xdc CMakeFiles/test3.elf.dir/Drivers/STM32F0xx_HAL_Driver/Src/stm32f0xx_hal_cortex.c.obj
 .text.HAL_NVIC_SetPriority
                0x00000000080004b0       0x2a CMakeFiles/test3.elf.dir/Drivers/STM32F0xx_HAL_Driver/Src/stm32f0xx_hal_cortex.c.obj
                0x00000000080004b0                HAL_NVIC_SetPriority
 .text.HAL_NVIC_EnableIRQ
                0x00000000080004da       0x20 CMakeFiles/test3.elf.dir/Drivers/STM32F0xx_HAL_Driver/Src/stm32f0xx_hal_cortex.c.obj
                0x00000000080004da                HAL_NVIC_EnableIRQ
 *fill*         0x00000000080004fa        0x2 
 .text.HAL_GPIO_Init
                0x00000000080004fc      0x2e8 CMakeFiles/test3.elf.dir/Drivers/STM32F0xx_HAL_Driver/Src/stm32f0xx_hal_gpio.c.obj
                0x00000000080004fc                HAL_GPIO_Init
 .text.HAL_GPIO_WritePin
                0x00000000080007e4       0x3a CMakeFiles/test3.elf.dir/Drivers/STM32F0xx_HAL_Driver/Src/stm32f0xx_hal_gpio.c.obj
                0x00000000080007e4                HAL_GPIO_WritePin
 .text.HAL_GPIO_TogglePin
                0x000000000800081e       0x24 CMakeFiles/test3.elf.dir/Drivers/STM32F0xx_HAL_Driver/Src/stm32f0xx_hal_gpio.c.obj
                0x000000000800081e                HAL_GPIO_TogglePin
 *fill*         0x0000000008000842        0x2 
 .text.HAL_I2C_Init
                0x0000000008000844      0x12c CMakeFiles/test3.elf.dir/Drivers/STM32F0xx_HAL_Driver/Src/stm32f0xx_hal_i2c.c.obj
                0x0000000008000844                HAL_I2C_Init
 .text.HAL_I2C_GetState
                0x0000000008000970       0x18 CMakeFiles/test3.elf.dir/Drivers/STM32F0xx_HAL_Driver/Src/stm32f0xx_hal_i2c.c.obj
                0x0000000008000970                HAL_I2C_GetState
 .text.HAL_I2CEx_ConfigAnalogFilter
                0x0000000008000988       0x98 CMakeFiles/test3.elf.dir/Drivers/STM32F0xx_HAL_Driver/Src/stm32f0xx_hal_i2c_ex.c.obj
                0x0000000008000988                HAL_I2CEx_ConfigAnalogFilter
 .text.HAL_I2CEx_ConfigDigitalFilter
                0x0000000008000a20       0x9c CMakeFiles/test3.elf.dir/Drivers/STM32F0xx_HAL_Driver/Src/stm32f0xx_hal_i2c_ex.c.obj
                0x0000000008000a20                HAL_I2CEx_ConfigDigitalFilter
 .text.HAL_RCC_OscConfig
                0x0000000008000abc      0x5e8 CMakeFiles/test3.elf.dir/Drivers/STM32F0xx_HAL_Driver/Src/stm32f0xx_hal_rcc.c.obj
                0x0000000008000abc                HAL_RCC_OscConfig
 .text.HAL_RCC_ClockConfig
                0x00000000080010a4      0x1d0 CMakeFiles/test3.elf.dir/Drivers/STM32F0xx_HAL_Driver/Src/stm32f0xx_hal_rcc.c.obj
                0x00000000080010a4                HAL_RCC_ClockConfig
 .text.HAL_RCC_GetSysClockFreq
                0x0000000008001274       0xc8 CMakeFiles/test3.elf.dir/Drivers/STM32F0xx_HAL_Driver/Src/stm32f0xx_hal_rcc.c.obj
                0x0000000008001274                HAL_RCC_GetSysClockFreq
 .text.HAL_RCC_GetHCLKFreq
                0x000000000800133c       0x14 CMakeFiles/test3.elf.dir/Drivers/STM32F0xx_HAL_Driver/Src/stm32f0xx_hal_rcc.c.obj
                0x000000000800133c                HAL_RCC_GetHCLKFreq
 .text.HAL_RCC_GetPCLK1Freq
                0x0000000008001350       0x2c CMakeFiles/test3.elf.dir/Drivers/STM32F0xx_HAL_Driver/Src/stm32f0xx_hal_rcc.c.obj
                0x0000000008001350                HAL_RCC_GetPCLK1Freq
 .text.HAL_RCC_GetClockConfig
                0x000000000800137c       0x54 CMakeFiles/test3.elf.dir/Drivers/STM32F0xx_HAL_Driver/Src/stm32f0xx_hal_rcc.c.obj
                0x000000000800137c                HAL_RCC_GetClockConfig
 .text.HAL_RCCEx_PeriphCLKConfig
                0x00000000080013d0      0x1bc CMakeFiles/test3.elf.dir/Drivers/STM32F0xx_HAL_Driver/Src/stm32f0xx_hal_rcc_ex.c.obj
                0x00000000080013d0                HAL_RCCEx_PeriphCLKConfig
 .text.HAL_TIM_Base_Init
                0x000000000800158c       0x58 CMakeFiles/test3.elf.dir/Drivers/STM32F0xx_HAL_Driver/Src/stm32f0xx_hal_tim.c.obj
                0x000000000800158c                HAL_TIM_Base_Init
 .text.HAL_TIM_Base_MspInit
                0x00000000080015e4       0x10 CMakeFiles/test3.elf.dir/Drivers/STM32F0xx_HAL_Driver/Src/stm32f0xx_hal_tim.c.obj
                0x00000000080015e4                HAL_TIM_Base_MspInit
 .text.HAL_TIM_Base_Start_IT
                0x00000000080015f4       0x32 CMakeFiles/test3.elf.dir/Drivers/STM32F0xx_HAL_Driver/Src/stm32f0xx_hal_tim.c.obj
                0x00000000080015f4                HAL_TIM_Base_Start_IT
 .text.HAL_TIM_IRQHandler
                0x0000000008001626      0x22c CMakeFiles/test3.elf.dir/Drivers/STM32F0xx_HAL_Driver/Src/stm32f0xx_hal_tim.c.obj
                0x0000000008001626                HAL_TIM_IRQHandler
 .text.HAL_TIM_OC_DelayElapsedCallback
                0x0000000008001852       0x10 CMakeFiles/test3.elf.dir/Drivers/STM32F0xx_HAL_Driver/Src/stm32f0xx_hal_tim.c.obj
                0x0000000008001852                HAL_TIM_OC_DelayElapsedCallback
 .text.HAL_TIM_IC_CaptureCallback
                0x0000000008001862       0x10 CMakeFiles/test3.elf.dir/Drivers/STM32F0xx_HAL_Driver/Src/stm32f0xx_hal_tim.c.obj
                0x0000000008001862                HAL_TIM_IC_CaptureCallback
 .text.HAL_TIM_PWM_PulseFinishedCallback
                0x0000000008001872       0x10 CMakeFiles/test3.elf.dir/Drivers/STM32F0xx_HAL_Driver/Src/stm32f0xx_hal_tim.c.obj
                0x0000000008001872                HAL_TIM_PWM_PulseFinishedCallback
 .text.HAL_TIM_TriggerCallback
                0x0000000008001882       0x10 CMakeFiles/test3.elf.dir/Drivers/STM32F0xx_HAL_Driver/Src/stm32f0xx_hal_tim.c.obj
                0x0000000008001882                HAL_TIM_TriggerCallback
 *fill*         0x0000000008001892        0x2 
 .text.TIM_Base_SetConfig
                0x0000000008001894      0x104 CMakeFiles/test3.elf.dir/Drivers/STM32F0xx_HAL_Driver/Src/stm32f0xx_hal_tim.c.obj
                0x0000000008001894                TIM_Base_SetConfig
 .text.HAL_TIMEx_CommutationCallback
                0x0000000008001998       0x10 CMakeFiles/test3.elf.dir/Drivers/STM32F0xx_HAL_Driver/Src/stm32f0xx_hal_tim_ex.c.obj
                0x0000000008001998                HAL_TIMEx_CommutationCallback
 .text.HAL_TIMEx_BreakCallback
                0x00000000080019a8       0x10 CMakeFiles/test3.elf.dir/Drivers/STM32F0xx_HAL_Driver/Src/stm32f0xx_hal_tim_ex.c.obj
                0x00000000080019a8                HAL_TIMEx_BreakCallback
 .text.makeFreeRtosPriority
                0x00000000080019b8       0x32 CMakeFiles/test3.elf.dir/Middlewares/Third_Party/FreeRTOS/Source/CMSIS_RTOS/cmsis_os.c.obj
 .text.osKernelStart
                0x00000000080019ea       0x10 CMakeFiles/test3.elf.dir/Middlewares/Third_Party/FreeRTOS/Source/CMSIS_RTOS/cmsis_os.c.obj
                0x00000000080019ea                osKernelStart
 .text.osThreadCreate
                0x00000000080019fa       0x50 CMakeFiles/test3.elf.dir/Middlewares/Third_Party/FreeRTOS/Source/CMSIS_RTOS/cmsis_os.c.obj
                0x00000000080019fa                osThreadCreate
 .text.osDelay  0x0000000008001a4a       0x28 CMakeFiles/test3.elf.dir/Middlewares/Third_Party/FreeRTOS/Source/CMSIS_RTOS/cmsis_os.c.obj
                0x0000000008001a4a                osDelay
 .text.vListInitialise
                0x0000000008001a72       0x3c CMakeFiles/test3.elf.dir/Middlewares/Third_Party/FreeRTOS/Source/list.c.obj
                0x0000000008001a72                vListInitialise
 .text.vListInitialiseItem
                0x0000000008001aae       0x16 CMakeFiles/test3.elf.dir/Middlewares/Third_Party/FreeRTOS/Source/list.c.obj
                0x0000000008001aae                vListInitialiseItem
 .text.vListInsertEnd
                0x0000000008001ac4       0x44 CMakeFiles/test3.elf.dir/Middlewares/Third_Party/FreeRTOS/Source/list.c.obj
                0x0000000008001ac4                vListInsertEnd
 .text.vListInsert
                0x0000000008001b08       0x6c CMakeFiles/test3.elf.dir/Middlewares/Third_Party/FreeRTOS/Source/list.c.obj
                0x0000000008001b08                vListInsert
 .text.uxListRemove
                0x0000000008001b74       0x50 CMakeFiles/test3.elf.dir/Middlewares/Third_Party/FreeRTOS/Source/list.c.obj
                0x0000000008001b74                uxListRemove
 .text.pxPortInitialiseStack
                0x0000000008001bc4       0x54 CMakeFiles/test3.elf.dir/Middlewares/Third_Party/FreeRTOS/Source/portable/GCC/ARM_CM0/port.c.obj
                0x0000000008001bc4                pxPortInitialiseStack
 .text.prvTaskExitError
                0x0000000008001c18       0x18 CMakeFiles/test3.elf.dir/Middlewares/Third_Party/FreeRTOS/Source/portable/GCC/ARM_CM0/port.c.obj
 .text.SVC_Handler
                0x0000000008001c30        0xa CMakeFiles/test3.elf.dir/Middlewares/Third_Party/FreeRTOS/Source/portable/GCC/ARM_CM0/port.c.obj
                0x0000000008001c30                SVC_Handler
 *fill*         0x0000000008001c3a        0x6 
 .text.vPortStartFirstTask
                0x0000000008001c40       0x38 CMakeFiles/test3.elf.dir/Middlewares/Third_Party/FreeRTOS/Source/portable/GCC/ARM_CM0/port.c.obj
 .text.xPortStartScheduler
                0x0000000008001c78       0x44 CMakeFiles/test3.elf.dir/Middlewares/Third_Party/FreeRTOS/Source/portable/GCC/ARM_CM0/port.c.obj
                0x0000000008001c78                xPortStartScheduler
 .text.vPortYield
                0x0000000008001cbc       0x20 CMakeFiles/test3.elf.dir/Middlewares/Third_Party/FreeRTOS/Source/portable/GCC/ARM_CM0/port.c.obj
                0x0000000008001cbc                vPortYield
 .text.vPortEnterCritical
                0x0000000008001cdc       0x24 CMakeFiles/test3.elf.dir/Middlewares/Third_Party/FreeRTOS/Source/portable/GCC/ARM_CM0/port.c.obj
                0x0000000008001cdc                vPortEnterCritical
 .text.vPortExitCritical
                0x0000000008001d00       0x30 CMakeFiles/test3.elf.dir/Middlewares/Third_Party/FreeRTOS/Source/portable/GCC/ARM_CM0/port.c.obj
                0x0000000008001d00                vPortExitCritical
 .text.ulSetInterruptMaskFromISR
                0x0000000008001d30        0xc CMakeFiles/test3.elf.dir/Middlewares/Third_Party/FreeRTOS/Source/portable/GCC/ARM_CM0/port.c.obj
                0x0000000008001d30                ulSetInterruptMaskFromISR
 .text.vClearInterruptMaskFromISR
                0x0000000008001d3c        0x8 CMakeFiles/test3.elf.dir/Middlewares/Third_Party/FreeRTOS/Source/portable/GCC/ARM_CM0/port.c.obj
                0x0000000008001d3c                vClearInterruptMaskFromISR
 *fill*         0x0000000008001d44        0xc 
 .text.PendSV_Handler
                0x0000000008001d50       0x48 CMakeFiles/test3.elf.dir/Middlewares/Third_Party/FreeRTOS/Source/portable/GCC/ARM_CM0/port.c.obj
                0x0000000008001d50                PendSV_Handler
 .text.SysTick_Handler
                0x0000000008001d98       0x34 CMakeFiles/test3.elf.dir/Middlewares/Third_Party/FreeRTOS/Source/portable/GCC/ARM_CM0/port.c.obj
                0x0000000008001d98                SysTick_Handler
 .text.vPortSetupTimerInterrupt
                0x0000000008001dcc       0x34 CMakeFiles/test3.elf.dir/Middlewares/Third_Party/FreeRTOS/Source/portable/GCC/ARM_CM0/port.c.obj
                0x0000000008001dcc                vPortSetupTimerInterrupt
 .text.pvPortMalloc
                0x0000000008001e00      0x14c CMakeFiles/test3.elf.dir/Middlewares/Third_Party/FreeRTOS/Source/portable/MemMang/heap_4.c.obj
                0x0000000008001e00                pvPortMalloc
 .text.vPortFree
                0x0000000008001f4c       0x90 CMakeFiles/test3.elf.dir/Middlewares/Third_Party/FreeRTOS/Source/portable/MemMang/heap_4.c.obj
                0x0000000008001f4c                vPortFree
 .text.prvHeapInit
                0x0000000008001fdc       0xc0 CMakeFiles/test3.elf.dir/Middlewares/Third_Party/FreeRTOS/Source/portable/MemMang/heap_4.c.obj
 .text.prvInsertBlockIntoFreeList
                0x000000000800209c       0xb0 CMakeFiles/test3.elf.dir/Middlewares/Third_Party/FreeRTOS/Source/portable/MemMang/heap_4.c.obj
 .text.xTaskCreate
                0x000000000800214c       0x90 CMakeFiles/test3.elf.dir/Middlewares/Third_Party/FreeRTOS/Source/tasks.c.obj
                0x000000000800214c                xTaskCreate
 .text.prvInitialiseNewTask
                0x00000000080021dc       0xf4 CMakeFiles/test3.elf.dir/Middlewares/Third_Party/FreeRTOS/Source/tasks.c.obj
 .text.prvAddNewTaskToReadyList
                0x00000000080022d0       0xc8 CMakeFiles/test3.elf.dir/Middlewares/Third_Party/FreeRTOS/Source/tasks.c.obj
 .text.vTaskDelay
                0x0000000008002398       0x4c CMakeFiles/test3.elf.dir/Middlewares/Third_Party/FreeRTOS/Source/tasks.c.obj
                0x0000000008002398                vTaskDelay
 .text.vTaskStartScheduler
                0x00000000080023e4       0x6c CMakeFiles/test3.elf.dir/Middlewares/Third_Party/FreeRTOS/Source/tasks.c.obj
                0x00000000080023e4                vTaskStartScheduler
 .text.vTaskSuspendAll
                0x0000000008002450       0x18 CMakeFiles/test3.elf.dir/Middlewares/Third_Party/FreeRTOS/Source/tasks.c.obj
                0x0000000008002450                vTaskSuspendAll
 .text.xTaskResumeAll
                0x0000000008002468      0x118 CMakeFiles/test3.elf.dir/Middlewares/Third_Party/FreeRTOS/Source/tasks.c.obj
                0x0000000008002468                xTaskResumeAll
 .text.xTaskIncrementTick
                0x0000000008002580      0x168 CMakeFiles/test3.elf.dir/Middlewares/Third_Party/FreeRTOS/Source/tasks.c.obj
                0x0000000008002580                xTaskIncrementTick
 .text.vTaskSwitchContext
                0x00000000080026e8       0xa4 CMakeFiles/test3.elf.dir/Middlewares/Third_Party/FreeRTOS/Source/tasks.c.obj
                0x00000000080026e8                vTaskSwitchContext
 .text.prvIdleTask
                0x000000000800278c       0x20 CMakeFiles/test3.elf.dir/Middlewares/Third_Party/FreeRTOS/Source/tasks.c.obj
 .text.prvInitialiseTaskLists
                0x00000000080027ac       0x88 CMakeFiles/test3.elf.dir/Middlewares/Third_Party/FreeRTOS/Source/tasks.c.obj
 .text.prvCheckTasksWaitingTermination
                0x0000000008002834       0x74 CMakeFiles/test3.elf.dir/Middlewares/Third_Party/FreeRTOS/Source/tasks.c.obj
 .text.prvDeleteTCB
                0x00000000080028a8       0x22 CMakeFiles/test3.elf.dir/Middlewares/Third_Party/FreeRTOS/Source/tasks.c.obj
 *fill*         0x00000000080028ca        0x2 
 .text.prvResetNextTaskUnblockTime
                0x00000000080028cc       0x48 CMakeFiles/test3.elf.dir/Middlewares/Third_Party/FreeRTOS/Source/tasks.c.obj
 .text.prvAddCurrentTaskToDelayedList
                0x0000000008002914       0xa8 CMakeFiles/test3.elf.dir/Middlewares/Third_Party/FreeRTOS/Source/tasks.c.obj
 .text.main     0x00000000080029bc       0x5c CMakeFiles/test3.elf.dir/Src/main.c.obj
                0x00000000080029bc                main
 .text.SystemClock_Config
                0x0000000008002a18       0xae CMakeFiles/test3.elf.dir/Src/main.c.obj
                0x0000000008002a18                SystemClock_Config
 *fill*         0x0000000008002ac6        0x2 
 .text.MX_I2C1_Init
                0x0000000008002ac8       0x80 CMakeFiles/test3.elf.dir/Src/main.c.obj
 .text.MX_GPIO_Init
                0x0000000008002b48       0xcc CMakeFiles/test3.elf.dir/Src/main.c.obj
 .text.StartDefaultTask
                0x0000000008002c14       0x24 CMakeFiles/test3.elf.dir/Src/main.c.obj
                0x0000000008002c14                StartDefaultTask
 .text.HAL_TIM_PeriodElapsedCallback
                0x0000000008002c38       0x24 CMakeFiles/test3.elf.dir/Src/main.c.obj
                0x0000000008002c38                HAL_TIM_PeriodElapsedCallback
 .text.Error_Handler
                0x0000000008002c5c        0xa CMakeFiles/test3.elf.dir/Src/main.c.obj
                0x0000000008002c5c                Error_Handler
 *fill*         0x0000000008002c66        0x2 
 .text.HAL_MspInit
                0x0000000008002c68       0x54 CMakeFiles/test3.elf.dir/Src/stm32f0xx_hal_msp.c.obj
                0x0000000008002c68                HAL_MspInit
 .text.HAL_I2C_MspInit
                0x0000000008002cbc       0x9c CMakeFiles/test3.elf.dir/Src/stm32f0xx_hal_msp.c.obj
                0x0000000008002cbc                HAL_I2C_MspInit
 .text.HAL_InitTick
                0x0000000008002d58       0xbc CMakeFiles/test3.elf.dir/Src/stm32f0xx_hal_timebase_tim.c.obj
                0x0000000008002d58                HAL_InitTick
 .text.NMI_Handler
                0x0000000008002e14        0xa CMakeFiles/test3.elf.dir/Src/stm32f0xx_it.c.obj
                0x0000000008002e14                NMI_Handler
 .text.HardFault_Handler
                0x0000000008002e1e        0x6 CMakeFiles/test3.elf.dir/Src/stm32f0xx_it.c.obj
                0x0000000008002e1e                HardFault_Handler
 .text.TIM1_BRK_UP_TRG_COM_IRQHandler
                0x0000000008002e24       0x18 CMakeFiles/test3.elf.dir/Src/stm32f0xx_it.c.obj
                0x0000000008002e24                TIM1_BRK_UP_TRG_COM_IRQHandler
 .text.SystemInit
                0x0000000008002e3c       0x88 CMakeFiles/test3.elf.dir/Src/system_stm32f0xx.c.obj
                0x0000000008002e3c                SystemInit
 .text.Reset_Handler
                0x0000000008002ec4       0x50 CMakeFiles/test3.elf.dir/startup/startup_stm32f051x8.s.obj
                0x0000000008002ec4                Reset_Handler
 .text.Default_Handler
                0x0000000008002f14        0x2 CMakeFiles/test3.elf.dir/startup/startup_stm32f051x8.s.obj
                0x0000000008002f14                TIM1_CC_IRQHandler
                0x0000000008002f14                TSC_IRQHandler
                0x0000000008002f14                ADC1_COMP_IRQHandler
                0x0000000008002f14                PVD_IRQHandler
                0x0000000008002f14                I2C1_IRQHandler
                0x0000000008002f14                RCC_CRS_IRQHandler
                0x0000000008002f14                SPI1_IRQHandler
                0x0000000008002f14                TIM6_DAC_IRQHandler
                0x0000000008002f14                EXTI2_3_IRQHandler
                0x0000000008002f14                I2C2_IRQHandler
                0x0000000008002f14                TIM17_IRQHandler
                0x0000000008002f14                CEC_CAN_IRQHandler
                0x0000000008002f14                RTC_IRQHandler
                0x0000000008002f14                TIM16_IRQHandler
                0x0000000008002f14                TIM3_IRQHandler
                0x0000000008002f14                EXTI4_15_IRQHandler
                0x0000000008002f14                DMA1_Channel1_IRQHandler
                0x0000000008002f14                Default_Handler
                0x0000000008002f14                TIM14_IRQHandler
                0x0000000008002f14                DMA1_Channel4_5_IRQHandler
                0x0000000008002f14                TIM15_IRQHandler
                0x0000000008002f14                EXTI0_1_IRQHandler
                0x0000000008002f14                SPI2_IRQHandler
                0x0000000008002f14                WWDG_IRQHandler
                0x0000000008002f14                TIM2_IRQHandler
                0x0000000008002f14                DMA1_Channel2_3_IRQHandler
                0x0000000008002f14                USART2_IRQHandler
                0x0000000008002f14                FLASH_IRQHandler
                0x0000000008002f14                USART1_IRQHandler
 *(.glue_7)
 .glue_7        0x0000000008002f16        0x0 linker stubs
 *(.glue_7t)
 .glue_7t       0x0000000008002f16        0x0 linker stubs
 *(.eh_frame)
 *fill*         0x0000000008002f16        0x2 
 .eh_frame      0x0000000008002f18        0x0 /usr/lib/gcc/arm-none-eabi/7.3.1/thumb/v6-m/crtbegin.o
 *(.init)
 .init          0x0000000008002f18        0x4 /usr/lib/gcc/arm-none-eabi/7.3.1/thumb/v6-m/crti.o
                0x0000000008002f18                _init
 .init          0x0000000008002f1c        0x8 /usr/lib/gcc/arm-none-eabi/7.3.1/thumb/v6-m/crtn.o
 *(.fini)
 .fini          0x0000000008002f24        0x4 /usr/lib/gcc/arm-none-eabi/7.3.1/thumb/v6-m/crti.o
                0x0000000008002f24                _fini
 .fini          0x0000000008002f28        0x8 /usr/lib/gcc/arm-none-eabi/7.3.1/thumb/v6-m/crtn.o
                0x0000000008002f30                . = ALIGN (0x4)
                0x0000000008002f30                _etext = .

.vfp11_veneer   0x0000000008002f30        0x0
 .vfp11_veneer  0x0000000008002f30        0x0 linker stubs

.v4_bx          0x0000000008002f30        0x0
 .v4_bx         0x0000000008002f30        0x0 linker stubs

.iplt           0x0000000008002f30        0x0
 .iplt          0x0000000008002f30        0x0 /usr/lib/gcc/arm-none-eabi/7.3.1/thumb/v6-m/crtbegin.o

.rodata         0x0000000008002f30       0x60
                0x0000000008002f30                . = ALIGN (0x4)
 *(.rodata)
 .rodata        0x0000000008002f30       0x20 CMakeFiles/test3.elf.dir/Drivers/STM32F0xx_HAL_Driver/Src/stm32f0xx_hal_rcc.c.obj
 .rodata        0x0000000008002f50        0x5 CMakeFiles/test3.elf.dir/Middlewares/Third_Party/FreeRTOS/Source/tasks.c.obj
 *fill*         0x0000000008002f55        0x3 
 .rodata        0x0000000008002f58       0x20 CMakeFiles/test3.elf.dir/Src/main.c.obj
 *(.rodata*)
 .rodata.AHBPrescTable
                0x0000000008002f78       0x10 CMakeFiles/test3.elf.dir/Src/system_stm32f0xx.c.obj
                0x0000000008002f78                AHBPrescTable
 .rodata.APBPrescTable
                0x0000000008002f88        0x8 CMakeFiles/test3.elf.dir/Src/system_stm32f0xx.c.obj
                0x0000000008002f88                APBPrescTable
                0x0000000008002f90                . = ALIGN (0x4)

.rel.dyn        0x0000000008002f90        0x0
 .rel.iplt      0x0000000008002f90        0x0 /usr/lib/gcc/arm-none-eabi/7.3.1/thumb/v6-m/crtbegin.o

.ARM.extab
 *(.ARM.extab* .gnu.linkonce.armextab.*)

.ARM            0x0000000008002f90        0x0
                0x0000000008002f90                __exidx_start = .
 *(.ARM.exidx*)
                0x0000000008002f90                __exidx_end = .

.preinit_array  0x0000000008002f90        0x0
                0x0000000008002f90                PROVIDE (__preinit_array_start = .)
 *(.preinit_array*)
                0x0000000008002f90                PROVIDE (__preinit_array_end = .)

.init_array     0x0000000008002f90        0x4
                0x0000000008002f90                PROVIDE (__init_array_start = .)
 *(SORT_BY_NAME(.init_array.*))
 *(.init_array*)
 .init_array    0x0000000008002f90        0x4 /usr/lib/gcc/arm-none-eabi/7.3.1/thumb/v6-m/crtbegin.o
                0x0000000008002f94                PROVIDE (__init_array_end = .)

.fini_array     0x0000000008002f94        0x4
                0x0000000008002f94                PROVIDE (__fini_array_start = .)
 *(SORT_BY_NAME(.fini_array.*))
 *(.fini_array*)
 .fini_array    0x0000000008002f94        0x4 /usr/lib/gcc/arm-none-eabi/7.3.1/thumb/v6-m/crtbegin.o
                0x0000000008002f98                PROVIDE (__fini_array_end = .)
                0x0000000008002f98                _sidata = LOADADDR (.data)

.data           0x0000000020000000        0x8 load address 0x0000000008002f98
                0x0000000020000000                . = ALIGN (0x4)
                0x0000000020000000                _sdata = .
 *(.data)
 *(.data*)
 .data.uxCriticalNesting
                0x0000000020000000        0x4 CMakeFiles/test3.elf.dir/Middlewares/Third_Party/FreeRTOS/Source/portable/GCC/ARM_CM0/port.c.obj
 .data.SystemCoreClock
                0x0000000020000004        0x4 CMakeFiles/test3.elf.dir/Src/system_stm32f0xx.c.obj
                0x0000000020000004                SystemCoreClock
                0x0000000020000008                . = ALIGN (0x4)
                0x0000000020000008                _edata = .

.tm_clone_table
                0x0000000020000008        0x0 load address 0x0000000008002fa0
 .tm_clone_table
                0x0000000020000008        0x0 /usr/lib/gcc/arm-none-eabi/7.3.1/thumb/v6-m/crtbegin.o
 .tm_clone_table
                0x0000000020000008        0x0 /usr/lib/gcc/arm-none-eabi/7.3.1/thumb/v6-m/crtend.o

.igot.plt       0x0000000020000008        0x0 load address 0x0000000008002fa0
 .igot.plt      0x0000000020000008        0x0 /usr/lib/gcc/arm-none-eabi/7.3.1/thumb/v6-m/crtbegin.o
                0x0000000020000008                . = ALIGN (0x4)

.bss            0x0000000020000008      0xdf4 load address 0x0000000008002fa0
                0x0000000020000008                _sbss = .
                0x0000000020000008                __bss_start__ = _sbss
 *(.bss)
 .bss           0x0000000020000008       0x1c /usr/lib/gcc/arm-none-eabi/7.3.1/thumb/v6-m/crtbegin.o
 *(.bss*)
 .bss.uwTick    0x0000000020000024        0x4 CMakeFiles/test3.elf.dir/Drivers/STM32F0xx_HAL_Driver/Src/stm32f0xx_hal.c.obj
                0x0000000020000024                uwTick
 .bss.ucHeap    0x0000000020000028      0xc00 CMakeFiles/test3.elf.dir/Middlewares/Third_Party/FreeRTOS/Source/portable/MemMang/heap_4.c.obj
 .bss.xStart    0x0000000020000c28        0x8 CMakeFiles/test3.elf.dir/Middlewares/Third_Party/FreeRTOS/Source/portable/MemMang/heap_4.c.obj
 .bss.pxEnd     0x0000000020000c30        0x4 CMakeFiles/test3.elf.dir/Middlewares/Third_Party/FreeRTOS/Source/portable/MemMang/heap_4.c.obj
 .bss.xFreeBytesRemaining
                0x0000000020000c34        0x4 CMakeFiles/test3.elf.dir/Middlewares/Third_Party/FreeRTOS/Source/portable/MemMang/heap_4.c.obj
 .bss.xMinimumEverFreeBytesRemaining
                0x0000000020000c38        0x4 CMakeFiles/test3.elf.dir/Middlewares/Third_Party/FreeRTOS/Source/portable/MemMang/heap_4.c.obj
 .bss.xBlockAllocatedBit
                0x0000000020000c3c        0x4 CMakeFiles/test3.elf.dir/Middlewares/Third_Party/FreeRTOS/Source/portable/MemMang/heap_4.c.obj
 .bss.pxCurrentTCB
                0x0000000020000c40        0x4 CMakeFiles/test3.elf.dir/Middlewares/Third_Party/FreeRTOS/Source/tasks.c.obj
                0x0000000020000c40                pxCurrentTCB
 .bss.pxReadyTasksLists
                0x0000000020000c44       0x8c CMakeFiles/test3.elf.dir/Middlewares/Third_Party/FreeRTOS/Source/tasks.c.obj
 .bss.xDelayedTaskList1
                0x0000000020000cd0       0x14 CMakeFiles/test3.elf.dir/Middlewares/Third_Party/FreeRTOS/Source/tasks.c.obj
 .bss.xDelayedTaskList2
                0x0000000020000ce4       0x14 CMakeFiles/test3.elf.dir/Middlewares/Third_Party/FreeRTOS/Source/tasks.c.obj
 .bss.pxDelayedTaskList
                0x0000000020000cf8        0x4 CMakeFiles/test3.elf.dir/Middlewares/Third_Party/FreeRTOS/Source/tasks.c.obj
 .bss.pxOverflowDelayedTaskList
                0x0000000020000cfc        0x4 CMakeFiles/test3.elf.dir/Middlewares/Third_Party/FreeRTOS/Source/tasks.c.obj
 .bss.xPendingReadyList
                0x0000000020000d00       0x14 CMakeFiles/test3.elf.dir/Middlewares/Third_Party/FreeRTOS/Source/tasks.c.obj
 .bss.xTasksWaitingTermination
                0x0000000020000d14       0x14 CMakeFiles/test3.elf.dir/Middlewares/Third_Party/FreeRTOS/Source/tasks.c.obj
 .bss.uxDeletedTasksWaitingCleanUp
                0x0000000020000d28        0x4 CMakeFiles/test3.elf.dir/Middlewares/Third_Party/FreeRTOS/Source/tasks.c.obj
 .bss.xSuspendedTaskList
                0x0000000020000d2c       0x14 CMakeFiles/test3.elf.dir/Middlewares/Third_Party/FreeRTOS/Source/tasks.c.obj
 .bss.uxCurrentNumberOfTasks
                0x0000000020000d40        0x4 CMakeFiles/test3.elf.dir/Middlewares/Third_Party/FreeRTOS/Source/tasks.c.obj
 .bss.xTickCount
                0x0000000020000d44        0x4 CMakeFiles/test3.elf.dir/Middlewares/Third_Party/FreeRTOS/Source/tasks.c.obj
 .bss.uxTopReadyPriority
                0x0000000020000d48        0x4 CMakeFiles/test3.elf.dir/Middlewares/Third_Party/FreeRTOS/Source/tasks.c.obj
 .bss.xSchedulerRunning
                0x0000000020000d4c        0x4 CMakeFiles/test3.elf.dir/Middlewares/Third_Party/FreeRTOS/Source/tasks.c.obj
 .bss.uxPendedTicks
                0x0000000020000d50        0x4 CMakeFiles/test3.elf.dir/Middlewares/Third_Party/FreeRTOS/Source/tasks.c.obj
 .bss.xYieldPending
                0x0000000020000d54        0x4 CMakeFiles/test3.elf.dir/Middlewares/Third_Party/FreeRTOS/Source/tasks.c.obj
 .bss.xNumOfOverflows
                0x0000000020000d58        0x4 CMakeFiles/test3.elf.dir/Middlewares/Third_Party/FreeRTOS/Source/tasks.c.obj
 .bss.uxTaskNumber
                0x0000000020000d5c        0x4 CMakeFiles/test3.elf.dir/Middlewares/Third_Party/FreeRTOS/Source/tasks.c.obj
 .bss.xNextTaskUnblockTime
                0x0000000020000d60        0x4 CMakeFiles/test3.elf.dir/Middlewares/Third_Party/FreeRTOS/Source/tasks.c.obj
 .bss.xIdleTaskHandle
                0x0000000020000d64        0x4 CMakeFiles/test3.elf.dir/Middlewares/Third_Party/FreeRTOS/Source/tasks.c.obj
 .bss.uxSchedulerSuspended
                0x0000000020000d68        0x4 CMakeFiles/test3.elf.dir/Middlewares/Third_Party/FreeRTOS/Source/tasks.c.obj
 .bss.hi2c1     0x0000000020000d6c       0x4c CMakeFiles/test3.elf.dir/Src/main.c.obj
                0x0000000020000d6c                hi2c1
 .bss.defaultTaskHandle
                0x0000000020000db8        0x4 CMakeFiles/test3.elf.dir/Src/main.c.obj
                0x0000000020000db8                defaultTaskHandle
 .bss.htim1     0x0000000020000dbc       0x40 CMakeFiles/test3.elf.dir/Src/stm32f0xx_hal_timebase_tim.c.obj
                0x0000000020000dbc                htim1
 *(COMMON)
                0x0000000020000dfc                . = ALIGN (0x4)
                0x0000000020000dfc                _ebss = .
                0x0000000020000dfc                __bss_end__ = _ebss

._user_heap_stack
                0x0000000020000dfc      0x604 load address 0x0000000008002fa0
                0x0000000020000e00                . = ALIGN (0x8)
 *fill*         0x0000000020000dfc        0x4 
                0x0000000020000e00                PROVIDE (end = .)
                [!provide]                        PROVIDE (_end = .)
                0x0000000020001000                . = (. + _Min_Heap_Size)
 *fill*         0x0000000020000e00      0x200 
                0x0000000020001400                . = (. + _Min_Stack_Size)
 *fill*         0x0000000020001000      0x400 
                0x0000000020001400                . = ALIGN (0x8)

/DISCARD/
 libc.a(*)
 libm.a(*)
 libgcc.a(*)

.ARM.attributes
                0x0000000000000000       0x28
 *(.ARM.attributes)
 .ARM.attributes
                0x0000000000000000       0x1e /usr/lib/gcc/arm-none-eabi/7.3.1/thumb/v6-m/crti.o
 .ARM.attributes
                0x000000000000001e       0x2c /usr/lib/gcc/arm-none-eabi/7.3.1/thumb/v6-m/crtbegin.o
 .ARM.attributes
                0x000000000000004a       0x31 CMakeFiles/test3.elf.dir/Drivers/STM32F0xx_HAL_Driver/Src/stm32f0xx_hal.c.obj
 .ARM.attributes
                0x000000000000007b       0x31 CMakeFiles/test3.elf.dir/Drivers/STM32F0xx_HAL_Driver/Src/stm32f0xx_hal_cortex.c.obj
 .ARM.attributes
                0x00000000000000ac       0x31 CMakeFiles/test3.elf.dir/Drivers/STM32F0xx_HAL_Driver/Src/stm32f0xx_hal_gpio.c.obj
 .ARM.attributes
                0x00000000000000dd       0x31 CMakeFiles/test3.elf.dir/Drivers/STM32F0xx_HAL_Driver/Src/stm32f0xx_hal_i2c.c.obj
 .ARM.attributes
                0x000000000000010e       0x31 CMakeFiles/test3.elf.dir/Drivers/STM32F0xx_HAL_Driver/Src/stm32f0xx_hal_i2c_ex.c.obj
 .ARM.attributes
                0x000000000000013f       0x31 CMakeFiles/test3.elf.dir/Drivers/STM32F0xx_HAL_Driver/Src/stm32f0xx_hal_rcc.c.obj
 .ARM.attributes
                0x0000000000000170       0x31 CMakeFiles/test3.elf.dir/Drivers/STM32F0xx_HAL_Driver/Src/stm32f0xx_hal_rcc_ex.c.obj
 .ARM.attributes
                0x00000000000001a1       0x31 CMakeFiles/test3.elf.dir/Drivers/STM32F0xx_HAL_Driver/Src/stm32f0xx_hal_tim.c.obj
 .ARM.attributes
                0x00000000000001d2       0x31 CMakeFiles/test3.elf.dir/Drivers/STM32F0xx_HAL_Driver/Src/stm32f0xx_hal_tim_ex.c.obj
 .ARM.attributes
                0x0000000000000203       0x31 CMakeFiles/test3.elf.dir/Middlewares/Third_Party/FreeRTOS/Source/CMSIS_RTOS/cmsis_os.c.obj
 .ARM.attributes
                0x0000000000000234       0x31 CMakeFiles/test3.elf.dir/Middlewares/Third_Party/FreeRTOS/Source/list.c.obj
 .ARM.attributes
                0x0000000000000265       0x31 CMakeFiles/test3.elf.dir/Middlewares/Third_Party/FreeRTOS/Source/portable/GCC/ARM_CM0/port.c.obj
 .ARM.attributes
                0x0000000000000296       0x31 CMakeFiles/test3.elf.dir/Middlewares/Third_Party/FreeRTOS/Source/portable/MemMang/heap_4.c.obj
 .ARM.attributes
                0x00000000000002c7       0x31 CMakeFiles/test3.elf.dir/Middlewares/Third_Party/FreeRTOS/Source/tasks.c.obj
 .ARM.attributes
                0x00000000000002f8       0x31 CMakeFiles/test3.elf.dir/Src/main.c.obj
 .ARM.attributes
                0x0000000000000329       0x31 CMakeFiles/test3.elf.dir/Src/stm32f0xx_hal_msp.c.obj
 .ARM.attributes
                0x000000000000035a       0x31 CMakeFiles/test3.elf.dir/Src/stm32f0xx_hal_timebase_tim.c.obj
 .ARM.attributes
                0x000000000000038b       0x31 CMakeFiles/test3.elf.dir/Src/stm32f0xx_it.c.obj
 .ARM.attributes
                0x00000000000003bc       0x31 CMakeFiles/test3.elf.dir/Src/system_stm32f0xx.c.obj
 .ARM.attributes
                0x00000000000003ed       0x21 CMakeFiles/test3.elf.dir/startup/startup_stm32f051x8.s.obj
 .ARM.attributes
                0x000000000000040e       0x1e /usr/lib/gcc/arm-none-eabi/7.3.1/thumb/v6-m/libgcc.a(_udivsi3.o)
 .ARM.attributes
                0x000000000000042c       0x1e /usr/lib/gcc/arm-none-eabi/7.3.1/thumb/v6-m/libgcc.a(_dvmd_tls.o)
 .ARM.attributes
                0x000000000000044a       0x2c /usr/lib/gcc/arm-none-eabi/7.3.1/../../../arm-none-eabi/lib/thumb/v6-m/libg_nano.a(lib_a-init.o)
 .ARM.attributes
                0x0000000000000476       0x2c /usr/lib/gcc/arm-none-eabi/7.3.1/../../../arm-none-eabi/lib/thumb/v6-m/libg_nano.a(lib_a-memset.o)
 .ARM.attributes
                0x00000000000004a2       0x2c /usr/lib/gcc/arm-none-eabi/7.3.1/thumb/v6-m/crtend.o
 .ARM.attributes
                0x00000000000004ce       0x1e /usr/lib/gcc/arm-none-eabi/7.3.1/thumb/v6-m/crtn.o
OUTPUT(test3.elf elf32-littlearm)

.comment        0x0000000000000000       0xae
 .comment       0x0000000000000000       0x57 /usr/lib/gcc/arm-none-eabi/7.3.1/thumb/v6-m/crtbegin.o
                                         0x58 (size before relaxing)
 .comment       0x0000000000000057       0x58 CMakeFiles/test3.elf.dir/Drivers/STM32F0xx_HAL_Driver/Src/stm32f0xx_hal.c.obj
 .comment       0x0000000000000057       0x58 CMakeFiles/test3.elf.dir/Drivers/STM32F0xx_HAL_Driver/Src/stm32f0xx_hal_cortex.c.obj
 .comment       0x0000000000000057       0x58 CMakeFiles/test3.elf.dir/Drivers/STM32F0xx_HAL_Driver/Src/stm32f0xx_hal_gpio.c.obj
 .comment       0x0000000000000057       0x58 CMakeFiles/test3.elf.dir/Drivers/STM32F0xx_HAL_Driver/Src/stm32f0xx_hal_i2c.c.obj
 .comment       0x0000000000000057       0x58 CMakeFiles/test3.elf.dir/Drivers/STM32F0xx_HAL_Driver/Src/stm32f0xx_hal_i2c_ex.c.obj
 .comment       0x0000000000000057       0x58 CMakeFiles/test3.elf.dir/Drivers/STM32F0xx_HAL_Driver/Src/stm32f0xx_hal_rcc.c.obj
 .comment       0x0000000000000057       0x58 CMakeFiles/test3.elf.dir/Drivers/STM32F0xx_HAL_Driver/Src/stm32f0xx_hal_rcc_ex.c.obj
 .comment       0x0000000000000057       0x58 CMakeFiles/test3.elf.dir/Drivers/STM32F0xx_HAL_Driver/Src/stm32f0xx_hal_tim.c.obj
 .comment       0x0000000000000057       0x58 CMakeFiles/test3.elf.dir/Drivers/STM32F0xx_HAL_Driver/Src/stm32f0xx_hal_tim_ex.c.obj
 .comment       0x0000000000000057       0x58 CMakeFiles/test3.elf.dir/Middlewares/Third_Party/FreeRTOS/Source/CMSIS_RTOS/cmsis_os.c.obj
 .comment       0x0000000000000057       0x58 CMakeFiles/test3.elf.dir/Middlewares/Third_Party/FreeRTOS/Source/list.c.obj
 .comment       0x0000000000000057       0x58 CMakeFiles/test3.elf.dir/Middlewares/Third_Party/FreeRTOS/Source/portable/GCC/ARM_CM0/port.c.obj
 .comment       0x0000000000000057       0x58 CMakeFiles/test3.elf.dir/Middlewares/Third_Party/FreeRTOS/Source/portable/MemMang/heap_4.c.obj
 .comment       0x0000000000000057       0x58 CMakeFiles/test3.elf.dir/Middlewares/Third_Party/FreeRTOS/Source/tasks.c.obj
 .comment       0x0000000000000057       0x58 CMakeFiles/test3.elf.dir/Src/main.c.obj
 .comment       0x0000000000000057       0x58 CMakeFiles/test3.elf.dir/Src/stm32f0xx_hal_msp.c.obj
 .comment       0x0000000000000057       0x58 CMakeFiles/test3.elf.dir/Src/stm32f0xx_hal_timebase_tim.c.obj
 .comment       0x0000000000000057       0x58 CMakeFiles/test3.elf.dir/Src/stm32f0xx_it.c.obj
 .comment       0x0000000000000057       0x58 CMakeFiles/test3.elf.dir/Src/system_stm32f0xx.c.obj
 .comment       0x0000000000000057       0x57 /usr/lib/gcc/arm-none-eabi/7.3.1/../../../arm-none-eabi/lib/thumb/v6-m/libg_nano.a(lib_a-init.o)
                                         0x58 (size before relaxing)
 .comment       0x00000000000000ae       0x58 /usr/lib/gcc/arm-none-eabi/7.3.1/../../../arm-none-eabi/lib/thumb/v6-m/libg_nano.a(lib_a-memset.o)
 .comment       0x00000000000000ae       0x58 /usr/lib/gcc/arm-none-eabi/7.3.1/thumb/v6-m/crtend.o

.debug_info     0x0000000000000000    0x16945
 .debug_info    0x0000000000000000      0xdd0 CMakeFiles/test3.elf.dir/Drivers/STM32F0xx_HAL_Driver/Src/stm32f0xx_hal.c.obj
 .debug_info    0x0000000000000dd0      0xf1c CMakeFiles/test3.elf.dir/Drivers/STM32F0xx_HAL_Driver/Src/stm32f0xx_hal_cortex.c.obj
 .debug_info    0x0000000000001cec      0xe47 CMakeFiles/test3.elf.dir/Drivers/STM32F0xx_HAL_Driver/Src/stm32f0xx_hal_gpio.c.obj
 .debug_info    0x0000000000002b33     0x23a1 CMakeFiles/test3.elf.dir/Drivers/STM32F0xx_HAL_Driver/Src/stm32f0xx_hal_i2c.c.obj
 .debug_info    0x0000000000004ed4     0x1072 CMakeFiles/test3.elf.dir/Drivers/STM32F0xx_HAL_Driver/Src/stm32f0xx_hal_i2c_ex.c.obj
 .debug_info    0x0000000000005f46      0xf90 CMakeFiles/test3.elf.dir/Drivers/STM32F0xx_HAL_Driver/Src/stm32f0xx_hal_rcc.c.obj
 .debug_info    0x0000000000006ed6      0xb8a CMakeFiles/test3.elf.dir/Drivers/STM32F0xx_HAL_Driver/Src/stm32f0xx_hal_rcc_ex.c.obj
 .debug_info    0x0000000000007a60     0x2a84 CMakeFiles/test3.elf.dir/Drivers/STM32F0xx_HAL_Driver/Src/stm32f0xx_hal_tim.c.obj
 .debug_info    0x000000000000a4e4     0x1830 CMakeFiles/test3.elf.dir/Drivers/STM32F0xx_HAL_Driver/Src/stm32f0xx_hal_tim_ex.c.obj
 .debug_info    0x000000000000bd14     0x1a5e CMakeFiles/test3.elf.dir/Middlewares/Third_Party/FreeRTOS/Source/CMSIS_RTOS/cmsis_os.c.obj
 .debug_info    0x000000000000d772      0xab5 CMakeFiles/test3.elf.dir/Middlewares/Third_Party/FreeRTOS/Source/list.c.obj
 .debug_info    0x000000000000e227      0x24a CMakeFiles/test3.elf.dir/Middlewares/Third_Party/FreeRTOS/Source/portable/GCC/ARM_CM0/port.c.obj
 .debug_info    0x000000000000e471      0xb0e CMakeFiles/test3.elf.dir/Middlewares/Third_Party/FreeRTOS/Source/portable/MemMang/heap_4.c.obj
 .debug_info    0x000000000000ef7f     0x1a3c CMakeFiles/test3.elf.dir/Middlewares/Third_Party/FreeRTOS/Source/tasks.c.obj
 .debug_info    0x00000000000109bb     0x1636 CMakeFiles/test3.elf.dir/Src/main.c.obj
 .debug_info    0x0000000000011ff1     0x1176 CMakeFiles/test3.elf.dir/Src/stm32f0xx_hal_msp.c.obj
 .debug_info    0x0000000000013167     0x103f CMakeFiles/test3.elf.dir/Src/stm32f0xx_hal_timebase_tim.c.obj
 .debug_info    0x00000000000141a6      0xdb6 CMakeFiles/test3.elf.dir/Src/stm32f0xx_it.c.obj
 .debug_info    0x0000000000014f5c      0xa55 CMakeFiles/test3.elf.dir/Src/system_stm32f0xx.c.obj
 .debug_info    0x00000000000159b1       0x22 CMakeFiles/test3.elf.dir/startup/startup_stm32f051x8.s.obj
 .debug_info    0x00000000000159d3       0x26 /usr/lib/gcc/arm-none-eabi/7.3.1/thumb/v6-m/libgcc.a(_udivsi3.o)
 .debug_info    0x00000000000159f9       0x26 /usr/lib/gcc/arm-none-eabi/7.3.1/thumb/v6-m/libgcc.a(_dvmd_tls.o)
 .debug_info    0x0000000000015a1f      0x109 /usr/lib/gcc/arm-none-eabi/7.3.1/../../../arm-none-eabi/lib/thumb/v6-m/libg_nano.a(lib_a-init.o)
 .debug_info    0x0000000000015b28      0xe1d /usr/lib/gcc/arm-none-eabi/7.3.1/../../../arm-none-eabi/lib/thumb/v6-m/libg_nano.a(lib_a-memset.o)

.debug_abbrev   0x0000000000000000     0x2e97
 .debug_abbrev  0x0000000000000000      0x268 CMakeFiles/test3.elf.dir/Drivers/STM32F0xx_HAL_Driver/Src/stm32f0xx_hal.c.obj
 .debug_abbrev  0x0000000000000268      0x311 CMakeFiles/test3.elf.dir/Drivers/STM32F0xx_HAL_Driver/Src/stm32f0xx_hal_cortex.c.obj
 .debug_abbrev  0x0000000000000579      0x24e CMakeFiles/test3.elf.dir/Drivers/STM32F0xx_HAL_Driver/Src/stm32f0xx_hal_gpio.c.obj
 .debug_abbrev  0x00000000000007c7      0x2a7 CMakeFiles/test3.elf.dir/Drivers/STM32F0xx_HAL_Driver/Src/stm32f0xx_hal_i2c.c.obj
 .debug_abbrev  0x0000000000000a6e      0x21c CMakeFiles/test3.elf.dir/Drivers/STM32F0xx_HAL_Driver/Src/stm32f0xx_hal_i2c_ex.c.obj
 .debug_abbrev  0x0000000000000c8a      0x283 CMakeFiles/test3.elf.dir/Drivers/STM32F0xx_HAL_Driver/Src/stm32f0xx_hal_rcc.c.obj
 .debug_abbrev  0x0000000000000f0d      0x225 CMakeFiles/test3.elf.dir/Drivers/STM32F0xx_HAL_Driver/Src/stm32f0xx_hal_rcc_ex.c.obj
 .debug_abbrev  0x0000000000001132      0x2af CMakeFiles/test3.elf.dir/Drivers/STM32F0xx_HAL_Driver/Src/stm32f0xx_hal_tim.c.obj
 .debug_abbrev  0x00000000000013e1      0x28c CMakeFiles/test3.elf.dir/Drivers/STM32F0xx_HAL_Driver/Src/stm32f0xx_hal_tim_ex.c.obj
 .debug_abbrev  0x000000000000166d      0x313 CMakeFiles/test3.elf.dir/Middlewares/Third_Party/FreeRTOS/Source/CMSIS_RTOS/cmsis_os.c.obj
 .debug_abbrev  0x0000000000001980      0x1c5 CMakeFiles/test3.elf.dir/Middlewares/Third_Party/FreeRTOS/Source/list.c.obj
 .debug_abbrev  0x0000000000001b45      0x184 CMakeFiles/test3.elf.dir/Middlewares/Third_Party/FreeRTOS/Source/portable/GCC/ARM_CM0/port.c.obj
 .debug_abbrev  0x0000000000001cc9      0x23a CMakeFiles/test3.elf.dir/Middlewares/Third_Party/FreeRTOS/Source/portable/MemMang/heap_4.c.obj
 .debug_abbrev  0x0000000000001f03      0x2db CMakeFiles/test3.elf.dir/Middlewares/Third_Party/FreeRTOS/Source/tasks.c.obj
 .debug_abbrev  0x00000000000021de      0x28c CMakeFiles/test3.elf.dir/Src/main.c.obj
 .debug_abbrev  0x000000000000246a      0x1f4 CMakeFiles/test3.elf.dir/Src/stm32f0xx_hal_msp.c.obj
 .debug_abbrev  0x000000000000265e      0x20b CMakeFiles/test3.elf.dir/Src/stm32f0xx_hal_timebase_tim.c.obj
 .debug_abbrev  0x0000000000002869      0x1c8 CMakeFiles/test3.elf.dir/Src/stm32f0xx_it.c.obj
 .debug_abbrev  0x0000000000002a31      0x1ca CMakeFiles/test3.elf.dir/Src/system_stm32f0xx.c.obj
 .debug_abbrev  0x0000000000002bfb       0x12 CMakeFiles/test3.elf.dir/startup/startup_stm32f051x8.s.obj
 .debug_abbrev  0x0000000000002c0d       0x14 /usr/lib/gcc/arm-none-eabi/7.3.1/thumb/v6-m/libgcc.a(_udivsi3.o)
 .debug_abbrev  0x0000000000002c21       0x14 /usr/lib/gcc/arm-none-eabi/7.3.1/thumb/v6-m/libgcc.a(_dvmd_tls.o)
 .debug_abbrev  0x0000000000002c35       0xba /usr/lib/gcc/arm-none-eabi/7.3.1/../../../arm-none-eabi/lib/thumb/v6-m/libg_nano.a(lib_a-init.o)
 .debug_abbrev  0x0000000000002cef      0x1a8 /usr/lib/gcc/arm-none-eabi/7.3.1/../../../arm-none-eabi/lib/thumb/v6-m/libg_nano.a(lib_a-memset.o)

.debug_aranges  0x0000000000000000     0x1018
 .debug_aranges
                0x0000000000000000       0xb8 CMakeFiles/test3.elf.dir/Drivers/STM32F0xx_HAL_Driver/Src/stm32f0xx_hal.c.obj
 .debug_aranges
                0x00000000000000b8       0xc0 CMakeFiles/test3.elf.dir/Drivers/STM32F0xx_HAL_Driver/Src/stm32f0xx_hal_cortex.c.obj
 .debug_aranges
                0x0000000000000178       0x58 CMakeFiles/test3.elf.dir/Drivers/STM32F0xx_HAL_Driver/Src/stm32f0xx_hal_gpio.c.obj
 .debug_aranges
                0x00000000000001d0      0x260 CMakeFiles/test3.elf.dir/Drivers/STM32F0xx_HAL_Driver/Src/stm32f0xx_hal_i2c.c.obj
 .debug_aranges
                0x0000000000000430       0x48 CMakeFiles/test3.elf.dir/Drivers/STM32F0xx_HAL_Driver/Src/stm32f0xx_hal_i2c_ex.c.obj
 .debug_aranges
                0x0000000000000478       0x80 CMakeFiles/test3.elf.dir/Drivers/STM32F0xx_HAL_Driver/Src/stm32f0xx_hal_rcc.c.obj
 .debug_aranges
                0x00000000000004f8       0x30 CMakeFiles/test3.elf.dir/Drivers/STM32F0xx_HAL_Driver/Src/stm32f0xx_hal_rcc_ex.c.obj
 .debug_aranges
                0x0000000000000528      0x378 CMakeFiles/test3.elf.dir/Drivers/STM32F0xx_HAL_Driver/Src/stm32f0xx_hal_tim.c.obj
 .debug_aranges
                0x00000000000008a0      0x148 CMakeFiles/test3.elf.dir/Drivers/STM32F0xx_HAL_Driver/Src/stm32f0xx_hal_tim_ex.c.obj
 .debug_aranges
                0x00000000000009e8      0x1d8 CMakeFiles/test3.elf.dir/Middlewares/Third_Party/FreeRTOS/Source/CMSIS_RTOS/cmsis_os.c.obj
 .debug_aranges
                0x0000000000000bc0       0x40 CMakeFiles/test3.elf.dir/Middlewares/Third_Party/FreeRTOS/Source/list.c.obj
 .debug_aranges
                0x0000000000000c00       0x88 CMakeFiles/test3.elf.dir/Middlewares/Third_Party/FreeRTOS/Source/portable/GCC/ARM_CM0/port.c.obj
 .debug_aranges
                0x0000000000000c88       0x50 CMakeFiles/test3.elf.dir/Middlewares/Third_Party/FreeRTOS/Source/portable/MemMang/heap_4.c.obj
 .debug_aranges
                0x0000000000000cd8      0x190 CMakeFiles/test3.elf.dir/Middlewares/Third_Party/FreeRTOS/Source/tasks.c.obj
 .debug_aranges
                0x0000000000000e68       0x50 CMakeFiles/test3.elf.dir/Src/main.c.obj
 .debug_aranges
                0x0000000000000eb8       0x30 CMakeFiles/test3.elf.dir/Src/stm32f0xx_hal_msp.c.obj
 .debug_aranges
                0x0000000000000ee8       0x30 CMakeFiles/test3.elf.dir/Src/stm32f0xx_hal_timebase_tim.c.obj
 .debug_aranges
                0x0000000000000f18       0x30 CMakeFiles/test3.elf.dir/Src/stm32f0xx_it.c.obj
 .debug_aranges
                0x0000000000000f48       0x28 CMakeFiles/test3.elf.dir/Src/system_stm32f0xx.c.obj
 .debug_aranges
                0x0000000000000f70       0x28 CMakeFiles/test3.elf.dir/startup/startup_stm32f051x8.s.obj
 .debug_aranges
                0x0000000000000f98       0x20 /usr/lib/gcc/arm-none-eabi/7.3.1/thumb/v6-m/libgcc.a(_udivsi3.o)
 .debug_aranges
                0x0000000000000fb8       0x20 /usr/lib/gcc/arm-none-eabi/7.3.1/thumb/v6-m/libgcc.a(_dvmd_tls.o)
 .debug_aranges
                0x0000000000000fd8       0x20 /usr/lib/gcc/arm-none-eabi/7.3.1/../../../arm-none-eabi/lib/thumb/v6-m/libg_nano.a(lib_a-init.o)
 .debug_aranges
                0x0000000000000ff8       0x20 /usr/lib/gcc/arm-none-eabi/7.3.1/../../../arm-none-eabi/lib/thumb/v6-m/libg_nano.a(lib_a-memset.o)

.debug_ranges   0x0000000000000000      0xe60
 .debug_ranges  0x0000000000000000       0xa8 CMakeFiles/test3.elf.dir/Drivers/STM32F0xx_HAL_Driver/Src/stm32f0xx_hal.c.obj
 .debug_ranges  0x00000000000000a8       0xb0 CMakeFiles/test3.elf.dir/Drivers/STM32F0xx_HAL_Driver/Src/stm32f0xx_hal_cortex.c.obj
 .debug_ranges  0x0000000000000158       0x48 CMakeFiles/test3.elf.dir/Drivers/STM32F0xx_HAL_Driver/Src/stm32f0xx_hal_gpio.c.obj
 .debug_ranges  0x00000000000001a0      0x250 CMakeFiles/test3.elf.dir/Drivers/STM32F0xx_HAL_Driver/Src/stm32f0xx_hal_i2c.c.obj
 .debug_ranges  0x00000000000003f0       0x38 CMakeFiles/test3.elf.dir/Drivers/STM32F0xx_HAL_Driver/Src/stm32f0xx_hal_i2c_ex.c.obj
 .debug_ranges  0x0000000000000428       0x70 CMakeFiles/test3.elf.dir/Drivers/STM32F0xx_HAL_Driver/Src/stm32f0xx_hal_rcc.c.obj
 .debug_ranges  0x0000000000000498       0x20 CMakeFiles/test3.elf.dir/Drivers/STM32F0xx_HAL_Driver/Src/stm32f0xx_hal_rcc_ex.c.obj
 .debug_ranges  0x00000000000004b8      0x368 CMakeFiles/test3.elf.dir/Drivers/STM32F0xx_HAL_Driver/Src/stm32f0xx_hal_tim.c.obj
 .debug_ranges  0x0000000000000820      0x138 CMakeFiles/test3.elf.dir/Drivers/STM32F0xx_HAL_Driver/Src/stm32f0xx_hal_tim_ex.c.obj
 .debug_ranges  0x0000000000000958      0x1c8 CMakeFiles/test3.elf.dir/Middlewares/Third_Party/FreeRTOS/Source/CMSIS_RTOS/cmsis_os.c.obj
 .debug_ranges  0x0000000000000b20       0x30 CMakeFiles/test3.elf.dir/Middlewares/Third_Party/FreeRTOS/Source/list.c.obj
 .debug_ranges  0x0000000000000b50       0x78 CMakeFiles/test3.elf.dir/Middlewares/Third_Party/FreeRTOS/Source/portable/GCC/ARM_CM0/port.c.obj
 .debug_ranges  0x0000000000000bc8       0x40 CMakeFiles/test3.elf.dir/Middlewares/Third_Party/FreeRTOS/Source/portable/MemMang/heap_4.c.obj
 .debug_ranges  0x0000000000000c08      0x180 CMakeFiles/test3.elf.dir/Middlewares/Third_Party/FreeRTOS/Source/tasks.c.obj
 .debug_ranges  0x0000000000000d88       0x40 CMakeFiles/test3.elf.dir/Src/main.c.obj
 .debug_ranges  0x0000000000000dc8       0x20 CMakeFiles/test3.elf.dir/Src/stm32f0xx_hal_msp.c.obj
 .debug_ranges  0x0000000000000de8       0x20 CMakeFiles/test3.elf.dir/Src/stm32f0xx_hal_timebase_tim.c.obj
 .debug_ranges  0x0000000000000e08       0x20 CMakeFiles/test3.elf.dir/Src/stm32f0xx_it.c.obj
 .debug_ranges  0x0000000000000e28       0x18 CMakeFiles/test3.elf.dir/Src/system_stm32f0xx.c.obj
 .debug_ranges  0x0000000000000e40       0x20 CMakeFiles/test3.elf.dir/startup/startup_stm32f051x8.s.obj

.debug_line     0x0000000000000000     0x7230
 .debug_line    0x0000000000000000      0x39a CMakeFiles/test3.elf.dir/Drivers/STM32F0xx_HAL_Driver/Src/stm32f0xx_hal.c.obj
 .debug_line    0x000000000000039a      0x3a6 CMakeFiles/test3.elf.dir/Drivers/STM32F0xx_HAL_Driver/Src/stm32f0xx_hal_cortex.c.obj
 .debug_line    0x0000000000000740      0x386 CMakeFiles/test3.elf.dir/Drivers/STM32F0xx_HAL_Driver/Src/stm32f0xx_hal_gpio.c.obj
 .debug_line    0x0000000000000ac6     0x12d1 CMakeFiles/test3.elf.dir/Drivers/STM32F0xx_HAL_Driver/Src/stm32f0xx_hal_i2c.c.obj
 .debug_line    0x0000000000001d97      0x358 CMakeFiles/test3.elf.dir/Drivers/STM32F0xx_HAL_Driver/Src/stm32f0xx_hal_i2c_ex.c.obj
 .debug_line    0x00000000000020ef      0x477 CMakeFiles/test3.elf.dir/Drivers/STM32F0xx_HAL_Driver/Src/stm32f0xx_hal_rcc.c.obj
 .debug_line    0x0000000000002566      0x303 CMakeFiles/test3.elf.dir/Drivers/STM32F0xx_HAL_Driver/Src/stm32f0xx_hal_rcc_ex.c.obj
 .debug_line    0x0000000000002869     0x14f5 CMakeFiles/test3.elf.dir/Drivers/STM32F0xx_HAL_Driver/Src/stm32f0xx_hal_tim.c.obj
 .debug_line    0x0000000000003d5e      0x898 CMakeFiles/test3.elf.dir/Drivers/STM32F0xx_HAL_Driver/Src/stm32f0xx_hal_tim_ex.c.obj
 .debug_line    0x00000000000045f6      0x8b3 CMakeFiles/test3.elf.dir/Middlewares/Third_Party/FreeRTOS/Source/CMSIS_RTOS/cmsis_os.c.obj
 .debug_line    0x0000000000004ea9      0x2b2 CMakeFiles/test3.elf.dir/Middlewares/Third_Party/FreeRTOS/Source/list.c.obj
 .debug_line    0x000000000000515b      0x2af CMakeFiles/test3.elf.dir/Middlewares/Third_Party/FreeRTOS/Source/portable/GCC/ARM_CM0/port.c.obj
 .debug_line    0x000000000000540a      0x2a3 CMakeFiles/test3.elf.dir/Middlewares/Third_Party/FreeRTOS/Source/portable/MemMang/heap_4.c.obj
 .debug_line    0x00000000000056ad      0xb48 CMakeFiles/test3.elf.dir/Middlewares/Third_Party/FreeRTOS/Source/tasks.c.obj
 .debug_line    0x00000000000061f5      0x3c0 CMakeFiles/test3.elf.dir/Src/main.c.obj
 .debug_line    0x00000000000065b5      0x24c CMakeFiles/test3.elf.dir/Src/stm32f0xx_hal_msp.c.obj
 .debug_line    0x0000000000006801      0x259 CMakeFiles/test3.elf.dir/Src/stm32f0xx_hal_timebase_tim.c.obj
 .debug_line    0x0000000000006a5a      0x224 CMakeFiles/test3.elf.dir/Src/stm32f0xx_it.c.obj
 .debug_line    0x0000000000006c7e      0x1b2 CMakeFiles/test3.elf.dir/Src/system_stm32f0xx.c.obj
 .debug_line    0x0000000000006e30       0x9d CMakeFiles/test3.elf.dir/startup/startup_stm32f051x8.s.obj
 .debug_line    0x0000000000006ecd       0x69 /usr/lib/gcc/arm-none-eabi/7.3.1/thumb/v6-m/libgcc.a(_udivsi3.o)
 .debug_line    0x0000000000006f36       0x5d /usr/lib/gcc/arm-none-eabi/7.3.1/thumb/v6-m/libgcc.a(_dvmd_tls.o)
 .debug_line    0x0000000000006f93       0xbf /usr/lib/gcc/arm-none-eabi/7.3.1/../../../arm-none-eabi/lib/thumb/v6-m/libg_nano.a(lib_a-init.o)
 .debug_line    0x0000000000007052      0x1de /usr/lib/gcc/arm-none-eabi/7.3.1/../../../arm-none-eabi/lib/thumb/v6-m/libg_nano.a(lib_a-memset.o)

.debug_str      0x0000000000000000     0x52d7
 .debug_str     0x0000000000000000      0x9bc CMakeFiles/test3.elf.dir/Drivers/STM32F0xx_HAL_Driver/Src/stm32f0xx_hal.c.obj
                                        0xa57 (size before relaxing)
 .debug_str     0x00000000000009bc      0x231 CMakeFiles/test3.elf.dir/Drivers/STM32F0xx_HAL_Driver/Src/stm32f0xx_hal_cortex.c.obj
                                        0xa9b (size before relaxing)
 .debug_str     0x0000000000000bed      0x1e6 CMakeFiles/test3.elf.dir/Drivers/STM32F0xx_HAL_Driver/Src/stm32f0xx_hal_gpio.c.obj
                                        0x88e (size before relaxing)
 .debug_str     0x0000000000000dd3      0xc04 CMakeFiles/test3.elf.dir/Drivers/STM32F0xx_HAL_Driver/Src/stm32f0xx_hal_i2c.c.obj
                                       0x12c3 (size before relaxing)
 .debug_str     0x00000000000019d7      0x10d CMakeFiles/test3.elf.dir/Drivers/STM32F0xx_HAL_Driver/Src/stm32f0xx_hal_i2c_ex.c.obj
                                        0xc57 (size before relaxing)
 .debug_str     0x0000000000001ae4      0x303 CMakeFiles/test3.elf.dir/Drivers/STM32F0xx_HAL_Driver/Src/stm32f0xx_hal_rcc.c.obj
                                        0xa40 (size before relaxing)
 .debug_str     0x0000000000001de7      0x153 CMakeFiles/test3.elf.dir/Drivers/STM32F0xx_HAL_Driver/Src/stm32f0xx_hal_rcc_ex.c.obj
                                        0x807 (size before relaxing)
 .debug_str     0x0000000000001f3a      0xf3d CMakeFiles/test3.elf.dir/Drivers/STM32F0xx_HAL_Driver/Src/stm32f0xx_hal_tim.c.obj
                                       0x17b4 (size before relaxing)
 .debug_str     0x0000000000002e77      0x55d CMakeFiles/test3.elf.dir/Drivers/STM32F0xx_HAL_Driver/Src/stm32f0xx_hal_tim_ex.c.obj
                                       0x10c9 (size before relaxing)
 .debug_str     0x00000000000033d4      0x87c CMakeFiles/test3.elf.dir/Middlewares/Third_Party/FreeRTOS/Source/CMSIS_RTOS/cmsis_os.c.obj
                                        0xf29 (size before relaxing)
 .debug_str     0x0000000000003c50      0x173 CMakeFiles/test3.elf.dir/Middlewares/Third_Party/FreeRTOS/Source/list.c.obj
                                        0x754 (size before relaxing)
 .debug_str     0x0000000000003dc3      0x1c0 CMakeFiles/test3.elf.dir/Middlewares/Third_Party/FreeRTOS/Source/portable/GCC/ARM_CM0/port.c.obj
                                        0x394 (size before relaxing)
 .debug_str     0x0000000000003f83      0x219 CMakeFiles/test3.elf.dir/Middlewares/Third_Party/FreeRTOS/Source/portable/MemMang/heap_4.c.obj
                                        0x7ff (size before relaxing)
 .debug_str     0x000000000000419c      0x97e CMakeFiles/test3.elf.dir/Middlewares/Third_Party/FreeRTOS/Source/tasks.c.obj
                                       0x10df (size before relaxing)
 .debug_str     0x0000000000004b1a       0xbb CMakeFiles/test3.elf.dir/Src/main.c.obj
                                       0x10de (size before relaxing)
 .debug_str     0x0000000000004bd5       0x35 CMakeFiles/test3.elf.dir/Src/stm32f0xx_hal_msp.c.obj
                                        0xd88 (size before relaxing)
 .debug_str     0x0000000000004c0a       0x6a CMakeFiles/test3.elf.dir/Src/stm32f0xx_hal_timebase_tim.c.obj
                                        0xcd8 (size before relaxing)
 .debug_str     0x0000000000004c74       0x6d CMakeFiles/test3.elf.dir/Src/stm32f0xx_it.c.obj
                                        0xa12 (size before relaxing)
 .debug_str     0x0000000000004ce1       0x74 CMakeFiles/test3.elf.dir/Src/system_stm32f0xx.c.obj
                                        0x6b4 (size before relaxing)
 .debug_str     0x0000000000004d55       0x47 CMakeFiles/test3.elf.dir/startup/startup_stm32f051x8.s.obj
                                         0x76 (size before relaxing)
 .debug_str     0x0000000000004d9c       0x9d /usr/lib/gcc/arm-none-eabi/7.3.1/thumb/v6-m/libgcc.a(_udivsi3.o)
 .debug_str     0x0000000000004e39       0x9d /usr/lib/gcc/arm-none-eabi/7.3.1/thumb/v6-m/libgcc.a(_dvmd_tls.o)
 .debug_str     0x0000000000004e39      0x18c /usr/lib/gcc/arm-none-eabi/7.3.1/../../../arm-none-eabi/lib/thumb/v6-m/libg_nano.a(lib_a-init.o)
                                        0x222 (size before relaxing)
 .debug_str     0x0000000000004fc5      0x312 /usr/lib/gcc/arm-none-eabi/7.3.1/../../../arm-none-eabi/lib/thumb/v6-m/libg_nano.a(lib_a-memset.o)
                                        0x908 (size before relaxing)

.debug_frame    0x0000000000000000     0x3728
 .debug_frame   0x0000000000000000      0x248 CMakeFiles/test3.elf.dir/Drivers/STM32F0xx_HAL_Driver/Src/stm32f0xx_hal.c.obj
 .debug_frame   0x0000000000000248      0x2a0 CMakeFiles/test3.elf.dir/Drivers/STM32F0xx_HAL_Driver/Src/stm32f0xx_hal_cortex.c.obj
 .debug_frame   0x00000000000004e8      0x110 CMakeFiles/test3.elf.dir/Drivers/STM32F0xx_HAL_Driver/Src/stm32f0xx_hal_gpio.c.obj
 .debug_frame   0x00000000000005f8      0x938 CMakeFiles/test3.elf.dir/Drivers/STM32F0xx_HAL_Driver/Src/stm32f0xx_hal_i2c.c.obj
 .debug_frame   0x0000000000000f30       0xd0 CMakeFiles/test3.elf.dir/Drivers/STM32F0xx_HAL_Driver/Src/stm32f0xx_hal_i2c_ex.c.obj
 .debug_frame   0x0000000000001000      0x194 CMakeFiles/test3.elf.dir/Drivers/STM32F0xx_HAL_Driver/Src/stm32f0xx_hal_rcc.c.obj
 .debug_frame   0x0000000000001194       0x70 CMakeFiles/test3.elf.dir/Drivers/STM32F0xx_HAL_Driver/Src/stm32f0xx_hal_rcc_ex.c.obj
 .debug_frame   0x0000000000001204      0xd94 CMakeFiles/test3.elf.dir/Drivers/STM32F0xx_HAL_Driver/Src/stm32f0xx_hal_tim.c.obj
 .debug_frame   0x0000000000001f98      0x4d0 CMakeFiles/test3.elf.dir/Drivers/STM32F0xx_HAL_Driver/Src/stm32f0xx_hal_tim_ex.c.obj
 .debug_frame   0x0000000000002468      0x6f4 CMakeFiles/test3.elf.dir/Middlewares/Third_Party/FreeRTOS/Source/CMSIS_RTOS/cmsis_os.c.obj
 .debug_frame   0x0000000000002b5c       0xb0 CMakeFiles/test3.elf.dir/Middlewares/Third_Party/FreeRTOS/Source/list.c.obj
 .debug_frame   0x0000000000002c0c      0x170 CMakeFiles/test3.elf.dir/Middlewares/Third_Party/FreeRTOS/Source/portable/GCC/ARM_CM0/port.c.obj
 .debug_frame   0x0000000000002d7c       0xe4 CMakeFiles/test3.elf.dir/Middlewares/Third_Party/FreeRTOS/Source/portable/MemMang/heap_4.c.obj
 .debug_frame   0x0000000000002e60      0x5dc CMakeFiles/test3.elf.dir/Middlewares/Third_Party/FreeRTOS/Source/tasks.c.obj
 .debug_frame   0x000000000000343c       0xe8 CMakeFiles/test3.elf.dir/Src/main.c.obj
 .debug_frame   0x0000000000003524       0x70 CMakeFiles/test3.elf.dir/Src/stm32f0xx_hal_msp.c.obj
 .debug_frame   0x0000000000003594       0x68 CMakeFiles/test3.elf.dir/Src/stm32f0xx_hal_timebase_tim.c.obj
 .debug_frame   0x00000000000035fc       0x64 CMakeFiles/test3.elf.dir/Src/stm32f0xx_it.c.obj
 .debug_frame   0x0000000000003660       0x4c CMakeFiles/test3.elf.dir/Src/system_stm32f0xx.c.obj
 .debug_frame   0x00000000000036ac       0x20 /usr/lib/gcc/arm-none-eabi/7.3.1/thumb/v6-m/libgcc.a(_udivsi3.o)
 .debug_frame   0x00000000000036cc       0x2c /usr/lib/gcc/arm-none-eabi/7.3.1/../../../arm-none-eabi/lib/thumb/v6-m/libg_nano.a(lib_a-init.o)
 .debug_frame   0x00000000000036f8       0x30 /usr/lib/gcc/arm-none-eabi/7.3.1/../../../arm-none-eabi/lib/thumb/v6-m/libg_nano.a(lib_a-memset.o)

.debug_loc      0x0000000000000000      0x229
 .debug_loc     0x0000000000000000       0x84 /usr/lib/gcc/arm-none-eabi/7.3.1/../../../arm-none-eabi/lib/thumb/v6-m/libg_nano.a(lib_a-init.o)
 .debug_loc     0x0000000000000084      0x1a5 /usr/lib/gcc/arm-none-eabi/7.3.1/../../../arm-none-eabi/lib/thumb/v6-m/libg_nano.a(lib_a-memset.o)
